:020000040000FA
:100000000C9439040C9461040C9461040C94610404
:100010000C9461040C9461040C9461040C946104CC
:100020000C9461040C9461040C9461040C94982168
:100030000C9461040C9454240C9486240C94610454
:100040000C9461040C9461040C9461040C9474206D
:100050000C946104494F533A20436865636B205305
:100060004420616E642070726573732061206B653B
:100070007920746F207265706561740D0A00202DFF
:100080002046696C653A2000206F70657261746962
:100090006F6E00554E4B4E4F574E005345454B002B
:1000A00057524954450052454144004F50454E0077
:1000B0004D4F554E5400206F6E2000554E4B4E4F05
:1000C000574E004E4F5F46494C4553595354454D8A
:1000D000004E4F545F454E41424C4544004E4F54F4
:1000E0005F4F50454E4544004E4F5F46494C4500DA
:1000F0004E4F545F5245414459004449534B5F456C
:100100005252000D0A494F533A20534420657272EF
:100110006F722000494F533A205254432064617457
:10012000652F74696D65207570646174656420283D
:1001300000202E2E2E646F6E652020202020200AA5
:10014000005365636F6E6473202D3E20004D696E11
:1001500075746573202D3E2000486F757273202DD5
:100160003E200020446179202D3E200020202020C8
:10017000202020202020202020004D6F6E74682039
:100180002D3E200059656172202D3E200020000A7E
:10019000507265737320542F5520746F20696E63FD
:1001A00072656D656E74202B31302F2B31206F728C
:1001B00020435220746F20616363657074000A49A4
:1001C0004F533A20525443206D616E75616C207319
:1001D000657474696E673A00494F533A205254432C
:1001E0002073657420617420636F6D70696C652085
:1001F00074696D65202D204E6F773A2000293F20CD
:100200005B592F4E5D203E000A446F20796F7520A8
:1002100077616E742073657420525443206174209A
:10022000494F5320636F6D70696C652074696D650B
:10023000202800494F533A2052544320636C6F6387
:100240006B206661696C7572652100494F533A20D5
:10025000525443204453333233312074656D7065FA
:100260007261747572652073656E736F723A2000E7
:10027000494F533A20466F756E64205254432044D0
:100280005333323331204D6F64756C652028000D77
:100290000A0A494F533A2042617564207265636FC0
:1002A0007665727920646F6E65202D20506C6561D3
:1002B0007365207265626F6F74206E6F7721000D19
:1002C0000A507265737320435220746F2061636318
:1002D0006570742C2045534320746F2065786974D1
:1002E000206F7220616E79206F74686572206B6573
:1002F0007920746F206368616E676500494F533AD7
:10030000205A38302069732072756E6E696E6720CE
:1003100066726F6D206E6F770020446F6E650049C6
:100320004F533A204C6F6164696E6720626F6F743F
:100330002070726F6772616D2E2E2E00292E2E2E68
:1003400000494F533A204C6F6164696E6720626FB9
:100350006F742070726F6772616D202800494F536F
:100360003A2043757272656E7420004368616E674F
:1003700065642073706565642077696C6C206265C4
:10038000206566666563746976652061667465726A
:10039000206E657874207265626F6F74210D0A0A91
:1003A000002020200D000D202D3E002020202020A8
:1003B0002020202020202020202020200D000D2083
:1003C0002D3E0020204F6B00456E74657220796FC2
:1003D00075722063686F696365203E0020393A209A
:1003E000536574205254432074696D652F646174A1
:1003F000650020383A205365742073657269616C1A
:1004000020706F72742073706565642028004F46F9
:10041000460020373A20546F67676C652043502FA1
:100420004D204175746F6578656320282D3E004D21
:10043000487A290020363A204368616E6765205A61
:10044000383020636C6F636B20737065656420289F
:100450002D3E0020353A20694C6F6164000D0A2062
:10046000343A204175746F626F6F740020333A2004
:100470004C6F61642F736574204F53200020323A13
:1004800020466F7274680020313A204261736963BC
:100490000020303A204E6F206368616E6765202827
:1004A00000494F533A2053656C65637420626F6F47
:1004B00074206D6F6465206F722073797374656D3D
:1004C00020706172616D65746572733A004F4646C3
:1004D000004F4E00494F533A2043502F4D20417555
:1004E000746F657865632069732000494F533A2023
:1004F000466F756E6420475045204F7074696F6E6B
:10050000004D487A00494F533A205A383020636CE6
:100510006F636B207365742061742000494F533AF8
:1005200020466F756E6420657874656E646564201E
:1005300073657269616C20527820627566666572B7
:10054000000D0A0A5A38302D4D424332202D2041E9
:100550003034303631380D0A494F53202D20492F81
:100560004F2053756273797374656D202D2053325B
:1005700032303731382D523239303832330D0A00AB
:1005800082053110FD2152FDCDC6FECD3EFFCDF4DA
:10059000FD3EFFBC2010BD200D21D9FDCDC6FE21A2
:1005A00088FDCDC6FE76E521D9FDCDC6FE2175FDBF
:1005B000CDC6FEE1CD4BFFCD3EFFCD3EFFDB01FEC4
:1005C000FF20FAE9694C6F6164202D20496E746543
:1005D0006C2D486578204C6F61646572202D205326
:1005E000323030373138005374617274696E67206D
:1005F000416464726573733A20004C6F61642065D6
:1006000072726F72202D2053797374656D2068614A
:100610006C7465640057616974696E6720696E70F7
:1006200075742073747265616D2E2E2E0053796E71
:10063000746178206572726F722100436865636B24
:1006400073756D206572726F722100694C6F616401
:100650003A2000416464726573732076696F6C613F
:1006600074696F6E2100F5D5C501FFFF21A3FDCD93
:10067000C6FECD3EFFCD72FFFE0D28F9FE0A28F51D
:10068000FE2028F1CD1AFFCD69FFFE3AC2A3FECDB0
:10069000E1FE571E00CDBEFECDD6FE3EFFB82005C2
:1006A000B92002444D7CCDBEFE7DCDBEFECDE1FE27
:1006B000CDBEFEFE01201ECDE1FECDBEFE7BA728F5
:1006C00066CD3EFF21D9FDCDC6FE21C9FDCDC6FEBA
:1006D00001FFFF18527AA7282CCDE1FECDBEFEE522
:1006E000C5A701F0FCED42C1E1DA8EFECD3EFF214F
:1006F000D9FDCDC6FE21E1FDCDC6FE01FFFF1827C5
:1007000077231518D0CDE1FECDBEFE7BA720B2CD5C
:100710003EFFC303FECD3EFF21D9FDCDC6FE21BB6A
:10072000FDCDC6FE01FFFFCD3EFF6069C1D1F1C91D
:10073000C54F7B915F79C1C9F5E57EFE002806CDE6
:1007400069FF2318F5E1F1C9F5CDE1FE67CDE1FEC2
:100750006FF1C9C5CDF4FECB07CB07CB07CB07475D
:10076000CDF4FEB0C1C9CD72FFCD1AFFCD06FF306A
:10077000F5CD23FFCD2EFFC9FE47D0FE3030023F1E
:10078000C9FE3AD8FE4130023FC937C9FE61D8FEE2
:100790007BD0E65FC9FE3A3802D607D630E60FC9ED
:1007A000F5E60FC630FE3A3802C607CD69FFF1C93B
:1007B000F53E0DCD69FF3E0ACD69FFF1C9E5F57C37
:1007C000CD58FF7DCD58FFF1E1C9F5C5470F0F0F9B
:1007D0000FCD2EFF78CD2EFFC1F1C9F53E01D3011B
:1007E000F1D300C9DB01FEFFCA72FFC9000000029D
:1007F00000000000000000000504000700000000E9
:1008000000000000000000000000000001020408D9
:1008100010204080010204081020408001020408DA
:1008200010204080010204081020408002020202D1
:100830000202020204040404040404040303030384
:10084000030303030101010101010101000039005B
:1008500036003300300000003B0038003500320025
:1008600000003A003700340031003206851FB624FC
:100870003E0611241FBECFE5D8E0DEBFCDBF11E09C
:10088000A0E6B0E0ECE4F4E502C005900D92AA35D4
:10089000B107D9F723E0AAE5B1E001C01D92A63760
:1008A000B207E1F714E0C8E3D4E004C02197FE01E9
:1008B0000E947F27C533D107C9F70E9441270C94B6
:1008C000192A0C9400001F93CF93DF93EC01162F8D
:1008D0000E94CD29181739F0612FCE01DF91CF91F9
:1008E0001F910C94D529DF91CF911F9108950C94FD
:1008F000CD29DC01ED91FC910190F081E02D09946E
:100900006FEB72E085E992E00C9454256AE00E9456
:1009100051278295807F890F0895982F92959F7017
:100920008F702AE0929F800D11240895CF93C82FD5
:100930008A3030F466E970E085E992E00E94412552
:100940004AE050E06C2F85E992E0CF910C94372675
:10095000CF93DF93D82FC0E0CD1751F061E08FE047
:100960000E94CC2260E08FE00E94CC22CF5FF4CFC7
:10097000DF91CF910895CF93DF93D82F81E00E942C
:10098000A80460E082E00E94CC22CFEFCABB86E3DD
:100990008BBB82E00E94A8041ABACBBB82E00E9403
:1009A000A804CABBDBBB82E00E94A8041ABACBBB76
:1009B00061E082E00E94CC2283E00E94A80481E0F2
:1009C0000E94A80460E082E00E94CC22CABB83E2BD
:1009D0008BBB82E00E94A8041ABACBBB61E082E024
:1009E0000E94CC2283E0DF91CF910C94A8041F9346
:1009F000CF93DF93182FD92F81E00E94A80460E0E5
:100A000082E00E94CC22CFEFCABB81E28BBB82E0A6
:100A10000E94A8041ABACBBB82E00E94A804CABBF9
:100A20001BBB83E00E94A804DBBB82E00E94A804F9
:100A30001ABACBBB61E082E0DF91CF911F910C9499
:100A4000CC2260E086E10E94CC2286E00E94A804CD
:100A500061E086E10E94CC2282E00C94A8040E940E
:100A6000921808950E94A01908950F931F93CF9391
:100A7000DF9300D0CDB7DEB78B01AE014F5F5F4F84
:100A800060E270E00E94271B9981F80190830F902B
:100A90000F90DF91CF911F910F9108950F931F93A6
:100AA000CF93DF9300D0CDB7DEB78B01AE014F5FA0
:100AB0005F4F60E270E0009721F470E060E090E04A
:100AC00080E00E94F91B9981F80190830F900F90AC
:100AD000DF91CF911F910F910895B0E0A0E0BC018C
:100AE000CD0129E0660F771F881F991F2A95D1F73E
:100AF0000E94FD1C08950F931F93CF93DF936623ED
:100B000009F476C08A01C62FD82F63E071E085E929
:100B100092E00E941D254AE050E06C2F85E992E0AA
:100B20000E94372660E870E085E992E00E94412546
:100B300068EE70E0C330C1F058F46AEF70E0C13085
:100B400099F060EF70E0C23079F06BEB70E00CC0B0
:100B500061ED70E0C53041F06DED70E0C53020F022
:100B600063EC70E0C63089F785E992E00E941D25AC
:100B700066EB70E085E992E00E941D2566EA70E070
:100B8000D230A1F058F460EB70E0DD2379F06BEA2D
:100B900070E0D13059F063E970E008C060EA70E0BD
:100BA000D33021F06BE970E0D430A9F785E992E009
:100BB0000E941D2568E870E085E992E00E941D25ED
:100BC0000115110559F06EE770E085E992E00E9489
:100BD0001D25B80185E992E00E94412563E870E097
:100BE00085E992E0DF91CF911F910F910C946625DA
:100BF000DF91CF911F910F910895CF93C82F65E892
:100C000070E085E992E00E9441254AE050E06C2FB7
:100C100085E992E00E943726C05DC093690087E6AF
:100C200090E00E94320563E671E088E691E00E9460
:100C3000350580916301882399F060E870E085E9CB
:100C400092E00E94412568E671E085E992E00E9409
:100C5000412563E870E085E992E0CF910C9441254D
:100C6000CF9108956FE870E08BED91E00E94B0267F
:100C700068E970E085ED91E00C94B02685ED91E097
:100C80000E943E268BED91E00C943E2685E992E091
:100C90000E942323181619069CF48091C501813007
:100CA00079F480917D00882359F060E081E00E9412
:100CB000CC228091BB0181608093BB0110927D00AA
:100CC0000895CF92DF92EF92FF920F931F93CF93ED
:100CD0000E94E2216B017C01C1E085E992E00E9463
:100CE0002323892B09F09DC00E94E2216C197D0904
:100CF0008E099F09683B7B4081059105A0F462E065
:100D00008DE00E9490228DE00E94FA22892B09F04A
:100D1000C0E061E08DE00E9490226AE070E080E037
:100D200090E00E9414220E94E22100915A01109149
:100D30005B0120915C0130915D01601B710B820BA6
:100D4000930B6D32714081059105A0F080E00E9407
:100D5000FA2261E0892B09F060E080E00E94CC2259
:100D60000E94E22160935A0170935B0180935C01C1
:100D700090935D010E94E2216C197D098E099F0903
:100D8000693B7B408105910508F4A7CFCC2309F48A
:100D9000A4CF8FE090E00E947704893009F49DCFC2
:100DA00060E080E00E94CC2269E08FE090E00E9449
:100DB00063046FE872E085E992E00E9454250E9486
:100DC000E221C0905A01D0905B01E0905C01F0906C
:100DD0005D016C197D098E099F09653671058105D4
:100DE000910568F380E00E94FA2261E0892B09F006
:100DF00060E080E00E94CC228DE00E94FA2261E057
:100E0000892B09F060E08DE00E94CC220E94E22153
:100E100060935A0170935B0180935C0190935D0134
:100E2000CECFCF911F910F91FF90EF90DF90CF9099
:100E3000089585E992E00E942323181619062CF4E0
:100E400085E992E00E943D23F4CF64E570E085E9F6
:100E500092E00E94542585E992E00E94232318160F
:100E60001906CCF70895EF920F93CF93C22F68E63F
:100E700070E086EE91E00E94071F70E060E086EE71
:100E800091E00E9479048091B8010E948604682F45
:100E900086EE91E00E948F1E8091B7010E94860429
:100EA000682F86EE91E00E948F1E8091B6010E940D
:100EB0008604682F86EE91E00E948F1E61E070E04C
:100EC00086EE91E00E9479048C2F0E948604682FA0
:100ED00086EE91E00E948F1E802F0E948604682F6C
:100EE00086EE91E00E948F1E8E2D0E948604682F50
:100EF00086EE91E00E948F1E86EE91E0CF910F91D9
:100F0000EF900C94821F6F927F928F929F92AF927C
:100F1000BF92CF92DF92EF92FF920F931F93CF93E6
:100F2000DF934C015B01EA01390168E670E086EE6F
:100F300091E00E94071F70E060E086EE91E00E9461
:100F4000790486EE91E00E94821F42E150E068E65B
:100F500070E086EE91E00E947F1F86EE91E00E9495
:100F6000361E8F770E948D04F401808386EE91E017
:100F70000E94361E0E948D04F501808386EE91E06A
:100F80000E94361E8F730E948D04888386EE91E046
:100F90000E94361E86EE91E00E94361E0E948D044D
:100FA000F301808386EE91E00E94361E0E948D043C
:100FB000F801808386EE91E00E94361E0E948D0427
:100FC000F7018083CAE086EE91E00E94361EC15090
:100FD000D1F786EE91E00E94361EF6018083DF9104
:100FE000CF911F910F91FF90EF90DF90CF90BF9026
:100FF000AF909F908F907F906F900895CF92DF92E7
:10100000EF92FF920F931F938823A1F082EBC82EDB
:1010100081E0D82E93EBE92E91E0F92E04EB11E05C
:1010200025EB31E046EB51E067EB71E088EB91E0B6
:101030000E9483078091B5010E94960464EA70E0E3
:1010400085E992E00E9441258091B4010E949604B6
:1010500064EA70E085E992E00E9441258091B30145
:101060000E9496046DE870E085E992E00E944125B7
:101070008091B6010E94960466EA70E085E992E0EC
:101080000E9441258091B7010E94960466EA70E0B3
:1010900085E992E00E9441258091B8011F910F914E
:1010A000FF90EF90DF90CF900C949604CF92DF9258
:1010B000EF92FF920F931F93CF93DF9382EBC82E93
:1010C00081E0D82E93EBE92E91E0F92E04EB11E0AC
:1010D00025EB31E046EB51E067EB71E088EB91E006
:1010E0000E9483071092D0016EEB71E085E992E0D7
:1010F0000E9454256FE871E085E992E00E94542532
:10110000CAE0D6EF11E06DE871E085E992E00E9457
:101110001D258091D001823009F47EC008F059C0AD
:10112000882309F465C0813009F46DC090E080E047
:101130000E94610685E992E00E943D238093BF01F1
:10114000853709F48FC0853509F48CC0843709F4DC
:1011500095C0843509F492C08D3041F76DE085E982
:1011600092E00E94AF238091BF018D3061F68091A3
:10117000D0018F5F8093D001863028F2E090B301D8
:101180000091B4012091B5014091B6016091B70181
:101190008091B8010E94330761E371E085E992E034
:1011A0000E94542564E171E085E992E00E941D25CA
:1011B00081E00E94FE0763E870E085E992E0DF913C
:1011C000CF911F910F91FF90EF90DF90CF900C94F3
:1011D00066258430F1F1A0F1853009F0A7CF61E4F4
:1011E00071E085E992E00E941D258091B80108C058
:1011F00064E871E085E992E00E941D258091B301C9
:101200000E94960493CF6AE771E085E992E00E941C
:101210001D258091B401F4CF6CE671E085E992E080
:101220000E941D256DE085E992E00E94AF2363E6F0
:1012300071E085E992E00E941D258091B501E0CF23
:1012400069E571E085E992E00E941D258091B60173
:10125000D7CF6DE471E085E992E00E941D25809171
:10126000B701CECF9091D0019230F1F1E8F49923FB
:1012700051F1913089F1843709F070CF8091D0011C
:10128000823009F48AC008F062C0882309F470C073
:10129000813009F063CF8091B4018B3008F478C0BD
:1012A0008A508093B4015ACF943009F447C0E8F1D2
:1012B000953009F78091B8018F5F8C3308F4C7C06F
:1012C0001092B8014BCF8091B3018F5F843608F440
:1012D000BBC01092B30142CF8091B4018F5F8D30BB
:1012E00000F39093B4013ACF8091B5018F5F809362
:1012F000B501E091B401E23089F490E02091B301AE
:10130000237049F42DE130E0281739070CF026CF7F
:101310001093B50123CF2CE130E0F6CFF0E0EB5D88
:10132000FE4F90819817A0F319CF8091B6018F5F7F
:10133000883108F483C01092B60110CF8091B701B4
:101340008F5F8C3308F47DC01092B70107CF8430D3
:1013500009F45CC008F44AC0853009F0FFCE209142
:10136000B801265F2C3308F061C02093B801F6CE97
:101370002091B301265F243618F42093B301EECEFA
:10138000822F6C2F0E9451278D9F200D1124F5CFA5
:10139000833008F0E3CE865F84CF2091B501265FCD
:1013A0002093B501422F50E0E091B401F0E0EB5DF5
:1013B000FE4F808190E03091B301337061E070E0C6
:1013C00011F070E060E0860F971F841795074CF4CA
:1013D000822F6C2F0E9451278D9F200D1124209366
:1013E000B5018091B5018111B9CE92CF2091B6019E
:1013F000265F283118F42093B601B0CE822F6C2FCF
:101400000E9451278D9F200D1124F5CF2091B70107
:10141000265F2C3318F42093B701A0CE822F6C2FB7
:101420000E9451278D9F200D1124F5CF822F6C2F04
:101430000E9451278D9F200D112497CF8093B601D4
:101440008DCE8093B7018ACE8093B30187CE8093EF
:10145000B80184CEEF920F93CF93DF9300D000D0EA
:1014600000D0CDB7DEB768E670E086EE91E00E946E
:10147000071F86EE91E00E94821F81116CC160E718
:1014800072E085E992E00E941D2581E00E94FE073E
:1014900063E870E085E992E00E9466256BE472E003
:1014A00085E992E00E941D256091B201062E000C94
:1014B000770B4AE050E085E992E00E94232668EA33
:1014C00070E085E992E00E94662568E670E086EEAD
:1014D00091E00E94071F6FE070E086EE91E00E94AD
:1014E000790486EE91E00E94821F41E050E068E6B8
:1014F00070E086EE91E00E947F1F86EE91E00E94F0
:10150000361E87FF00C128E030E046E050E06BED7A
:1015100071E0CE0101960E94EF26CE0101960E9455
:1015200035276093B801CE0101960E943E2625E042
:1015300030E043E050E06BED71E0CE0101960E9497
:10154000EF26CE0101960E9435276093B701CE01A8
:1015500001960E943E2622E030E050E040E06BED34
:1015600071E0CE0101960E94EF26CE0101960E9405
:1015700035276093B601CE0101960E943E2626E0F3
:1015800030E044E050E065ED71E0CE0101960E944C
:10159000EF26CE0101960E9435276093B501CE015A
:1015A00001960E943E2670E060E085ED91E00E9489
:1015B000DE26EFEBE80FE33108F02FC00E2E000C13
:1015C000FF0BEB51F54F0C947F278B0B0D0B0D0B85
:1015D000A90B0D0B890B0D0B0D0B0D0BF80A0D0B49
:1015E0000D0B970BA70BA50B0D0B0D0B0D0BA30BE9
:1015F00061E070E085ED91E00E94DE26813609F41D
:1016000084C062E070E085ED91E00E94DE268E36B7
:1016100009F47DC087E08093B4012BE030E049E01D
:1016200050E065ED71E0CE0101960E94EF26CE01FB
:1016300001960E9435276093B301CE0101960E9466
:101640003E2663E372E085E992E00E94542568E05B
:1016500072E085E992E00E941D2580E00E94FE076D
:101660006DEF71E085E992E00E941D2590E080E039
:101670000E94610685E992E00E943D238093BF01AC
:10168000893731F0893521F08E3611F08E3471F7BB
:10169000682F85E992E00E947D258091BF018F7DB2
:1016A0008935D9F4E090B3010091B4012091B501DE
:1016B0004091B6016091B7018091B8010E94330753
:1016C00068ED71E085E992E00E941D2581E00E94AD
:1016D000FE0785E992E00E94502568E670E086EEFC
:1016E00091E00E94071F6FE070E086EE91E00E949B
:1016F000790468E070E086EE91E00E94790486EE5D
:1017000091E00E94821F81E027C081E084CF86E0C3
:1017100082CF82E080CF62E070E085ED91E00E94B0
:10172000DE26823711F088E076CF84E074CF62E065
:1017300070E085ED91E00E94DE26823711F085E0B1
:101740006ACF83E068CF89E066CF8AE064CF8BE020
:1017500062CF8CE060CF80E026960FB6F894DEBFB3
:101760000FBECDBFDF91CF910F91EF900895CF9332
:10177000DF9361E086E10E94902260E086E10E94B2
:10178000CC2261E080E00E94902260E080E00E9434
:10179000CC2262E08DE00E9490228DE00E94FA222D
:1017A000EC0161E08DE00E94902261E08DE00E94FA
:1017B000CC2262E081E00E94902261E081E00E9400
:1017C000902261E081E00E94CC2261E082E00E94F0
:1017D000902261E082E00E94CC2260E083E00E94DF
:1017E000902262E08EE00E94902261E08EE00E94F2
:1017F000902261E08EE00E94CC221ABA8FEF8BBB60
:1018000062E085E10E94902262E084E10E949022E1
:1018100062E083E10E94902262E082E10E949022D5
:1018200061E08CE00E94902261E08CE00E94CC227A
:1018300061E08BE00E94902260E08BE00E94CC226D
:1018400061E08FE00E9490220E94210562E08AE020
:101850000E94902261E087E10E94902260E087E18F
:101860000E94CC2264E670E080E090E00E941422A6
:1018700061E087E10E94CC2264EF71E080E090E0BB
:101880000E9414228DE090E00E947704823028F0BC
:1018900061E08DE090E00E9463048DE090E00E94A2
:1018A00077048093BD018EE090E00E9477048093DE
:1018B0005E01863038F060E08EE090E00E946304C4
:1018C00010925E0186EE91E00E94EB1E60E270E0F5
:1018D00086EE91E00E94071F86EE91E00E94821F33
:1018E000811119C081E08093CF0160E270E086EE43
:1018F00091E00E94071F6CE070E086EE91E00E948C
:10190000790465E070E086EE91E00E94790486EE4D
:1019100091E00E94821F8FE090E00E9477048A305D
:1019200028F069E08FE090E00E9463048FE090E08F
:101930000E94770440E052EC61E070E0893050F49E
:10194000E82FF0E0EE0FFF1FEC5EFE4F408151816B
:1019500070E060E026E085E992E00E94FB2361E40C
:1019600075E085E992E00E9454256CE175E085E917
:1019700092E00E94542565E075E085E992E00E94BE
:101980001D258091BD016AEA70E0811102C06CEAF8
:1019900070E085E992E00E94412561E075E085E90B
:1019A00092E00E9454250E942A0A8093B9018091F6
:1019B000CF01882331F06BEE74E085E992E00E945C
:1019C000542564ED74E085E992E00E941D258CE0C9
:1019D00090E00E947704823028F060E08CE090E094
:1019E0000E9463048CE090E00E947704809365017C
:1019F00061ED74E0811102C06DEC74E085E992E064
:101A00000E94542588E891E00E942F0588E891E023
:101A10000E942F058AE090E00E9477048093CC0119
:101A2000CD2B19F0853008F4F5C085E992E00E94CD
:101A30002323181619062CF485E992E00E943D2311
:101A4000F4CF85E992E00E94502561EA74E085E9CF
:101A500092E00E94542585E992E00E9450258091F1
:101A6000CC01D1E38530C0F461E974E085E992E00E
:101A70000E941D256091CC0170E06F5F7F4F4AE0AE
:101A800050E085E992E00E94232663E870E085E952
:101A900092E00E946625D0E367E874E085E992E071
:101AA0000E9454256DE774E085E992E00E94542578
:101AB0006CE674E085E992E00E941D2580915E014C
:101AC0000E94FD056DE574E085E992E00E945425D1
:101AD00063E574E085E992E00E94542564E374E0D4
:101AE00085E992E00E941D258091BD016CEA70E0BD
:101AF000811102C06AEA70E085E992E00E94412506
:101B00006FE274E085E992E00E94542562E174E09E
:101B100085E992E00E941D25809165018111DBC05D
:101B20006EEA70E085E992E00E94412563E870E08A
:101B300085E992E00E94662562EF73E085E992E014
:101B40000E941D258FE090E00E94770440E052EC57
:101B500061E070E0893050F4E82FF0E0EE0FFF1FF5
:101B6000EC5EFE4F4081518170E060E02AE030E0A1
:101B700085E992E00E942A2663E870E085E992E018
:101B80000E9466258091B901C8E3882339F06CED85
:101B900073E085E992E00E945425C9E385E992E06B
:101BA0000E94502568EC73E085E992E00E941D25B3
:101BB00081E090E00E94610685E992E00E943D2369
:101BC0008093BF018D17A4F3C81794F3682F85E99C
:101BD00092E00E94492563EC73E085E992E00E945F
:101BE00054258091BF01873309F4ECC00CF07AC012
:101BF000833309F480C0863309F4D8C06091BF01F3
:101C000061536093CC01653008F0B9C28AE090E07E
:101C10000E9463048091CC01823071F46DE573E021
:101C200085E992E00E941D2580915E010E94FD05DC
:101C300085E992E00E9450258091CC01823009F420
:101C400072C108F042C1882309F456C1813009F4F9
:101C500061C161E080E00E94CC228091C601909138
:101C6000C701892B79F090E080E00E94F70483ECB3
:101C70000E94BB048091C6010E94BB048091C701F1
:101C80000E94BB048091C6019091C7010E94F70495
:101C90008091CC01843008F048C288E891E00E942D
:101CA0009218882309F489C188E891E00E9492186B
:101CB00080936401882309F480C150E040E0609182
:101CC000640180E00E947B050E94190788E891E08A
:101CD0000E942F05E9CF6EE074E085E992E00E9452
:101CE0001D2524CF883309F477C0893309F086CFC6
:101CF0000E94560883CF0E94800480915E0181502B
:101D00008093BE01C6E08091BE018F5F6C2F0E9460
:101D100051279093BE016EEB73E085E992E00E943B
:101D20001D258091BE010E94FD056BEA73E085E9E7
:101D300092E00E941D2585E992E00E942323181657
:101D400019062CF485E992E00E943D23F4CF85E941
:101D500092E00E942323181619062CF090E080E0F0
:101D60000E946106F4CF85E992E00E943D238093B2
:101D7000BF018D3011F08B3131F685E992E00E9480
:101D8000502585E992E00E9450258091BF018D3059
:101D900009F034CF6091BE0160935E018EE090E067
:101DA0000E94630483E38093BF0128CF61E08091A8
:101DB000BD01811160E06093BD018DE090E00E9463
:101DC00063041CCF61E080916501811160E0609344
:101DD00065018CE090E0F3CF0E9480048FE090E0FA
:101DE0000E94770481508093BE01CAE08091BE01B9
:101DF0008F5F6C2F0E9451279093BE0166EA73E0BB
:101E000085E992E00E941D25E091BE0140E052EC80
:101E100061E070E0E93048F4F0E0EE0FFF1FEC5EA7
:101E2000FE4F4081518170E060E02AE030E085E9BA
:101E300092E00E942A2661EA73E085E992E00E941E
:101E40001D2585E992E00E942323181619062CF41B
:101E500085E992E00E943D23F4CF85E992E00E945B
:101E60002323181619062CF090E080E00E946106EA
:101E7000F4CF85E992E00E943D238093BF018D302D
:101E800019F08B3109F0B2CF85E992E00E9450251C
:101E900085E992E00E9450258091BF018D3009F0C4
:101EA000ADCE8FE090E00E9477046091BE0186176E
:101EB00009F462C18FE090E00E9463046BE673E076
:101EC00085E992E00E94542599CE833009F472C0CE
:101ED000843009F0BECEE0E8F5E0859194919093CE
:101EE000CB018093CA018AE692E09093C901809366
:101EF000C80180E19DEF48C081EB90E090936701BD
:101F0000809366011092C7011092C60181E0809310
:101F1000C5019FCE8DEB90E09093670180936601A1
:101F200080E091E031C080915E01823091F170F4E7
:101F3000882311F1813009F08CCE83ED90E09093ED
:101F400067018093660180E890E01EC0843079F1DB
:101F500018F1853009F07DCE8DEF90E09093670108
:101F6000809366011092C7011092C60181E08093B0
:101F7000C5018093C4016DCE89EC90E09093670118
:101F80008093660180EE91ED9093C7018093C60126
:101F900060CE8EED90E0C0CF89EE90E09093670127
:101FA000809366011092C7011092C60152CE85EF50
:101FB00090E0F4CF87E091E0F1CF809166019091BD
:101FC00067010E94A01980936401882341F1409128
:101FD0006601509167016091640181E00E947B0578
:101FE0000E94190780916601909167010E94A019D3
:101FF00080936401833081F088E891E00E942F058E
:1020000088E891E00E942F05809166019091670118
:102010000E94A0198093640180916401D6CF61E48D
:1020200073E085E992E00E941D2560916601709140
:10203000670185E992E00E9441256CE373E085E940
:1020400092E00E941D2563E671E088E691E00E941F
:102050003505809364011092BE01E091BE0180912C
:102060006301E81760F4F0E0E859FE4F80810E94B8
:10207000BB048091BE018F5F8093BE01EECF609163
:102080006401803281F46623F1F24091660150913F
:10209000670182E00E947B050E94190790E080E0C2
:1020A0000E946D0502C06111F0CF80916401811121
:1020B000CACF69E173E085E992E00E94542560E0AF
:1020C00086E10E94CC2282B5877F82BD85B5816082
:1020D00085BD85B5897F85BD85B5886085BD85B59C
:1020E0008F7B85BD85B5806185BD85B58F7D85BDBF
:1020F0008091BD0183BD61E08FE00E9490226CEF72
:1021000072E085E992E00E94542585E992E00E9400
:10211000502585E992E00E9423231816190604F53C
:1021200085E992E00E943D23F4CF6FE173E085E9F9
:1021300092E00E941D25D0E0C0E08091C8019091FE
:10214000C901C817D90708F0B4CFE091CA01F091CE
:10215000CB01EC0FFD1F84910E94BB042196EDCFB3
:1021600061E070E080E090E00E94142261E086E18E
:10217000DF91CF910C94CC228CED8093CC018AE03E
:1021800090E00E9477048093CC0144CDCF92DF92FF
:10219000EF92FF920F931F93CF93DF9383E00E9400
:1021A000FA22892B09F0B3C283E10E94FA22892B1B
:1021B00009F063C282E10E94FA228093D40129B31C
:1021C0002093D301882379F020937F001092D201CD
:1021D0001092D10160E08EE00E94CC2260E080E0AD
:1021E0000E94CC228CC2E0917F00E331F0F4F0E059
:1021F000E450FF4E0C947F270F1121111511271168
:1022000042114F115C116A1178118611A511D2117A
:10221000E61142125712611267126B12021360E04C
:1022200020FF61E08DE00E94CC2280917F008A3007
:1022300009F4D0CF8C3009F4CDCF8FEF80937F009D
:10224000C9CF622F85E992E00E94AF23EECF809143
:10225000CF01882351F360E270E086EE91E00E94A6
:10226000071F62E170E086EE91E00E9479046091C0
:10227000D30186EE91E00E948F1E86EE91E00E94CF
:10228000821FD3CF8091CF01882379F260E270E082
:1022900086EE91E00E94071F63E170E0E4CF809139
:1022A000CF01882311F260E270E086EE91E00E9497
:1022B000071F70E060E0D7CF8091CF01882309F439
:1022C000B4CF60E270E086EE91E00E94071F61E00B
:1022D00070E0C9CF8091CF01882309F4A6CF60E2D6
:1022E00070E086EE91E00E94071F6CE070E0BBCFCB
:1022F0008091CF01882309F498CF60E270E086EEE8
:1023000091E00E94071F6DE070E0ADCF80E12436C0
:10231000C8F480915E01805D80937400822F6AE032
:102320000E94512790E3980F9093760060E3620F2C
:1023300026EF829F600D11246093770082E790E082
:102340000E94A0198093660070CF8091D101909176
:10235000D201622F70E0009751F470936201609394
:10236000610101969093D2018093D1015ECF2091BB
:102370006101362F30936201209361014091600129
:102380002115324040F4403248F4109266002FEF9D
:1023900020937F00E6CF21E1403208F022E1209334
:1023A0006600F5CF209360018091610190916201F8
:1023B0008115924028F4203238F41092660035CF0F
:1023C00081E1203208F4BECF82E1BCCF8091D101FF
:1023D0009091D201892BD1F4809161019091620199
:1023E000811542E0940790F420916001203270F44E
:1023F0003091660031110AC075E0880F991F7A95F7
:10240000E1F7822B0E946D05809366008091660043
:10241000811133C08091D1018F718093D001E82F59
:10242000F0E0E859FE4F9091D30190838F3129F568
:102430006FE571E088E691E00E944E0580936600AA
:1024400080915F01803218F483E18093660080916F
:10245000D1019091D2018F3F914078F08091660038
:10246000811108C06FE571E090E080E00E944E05A8
:10247000809366008FEF80937F008091D1019091CF
:10248000D2016FCF213069F028F0223009F0CDCE93
:1024900060E008C061E08CE00E94CC2260E08BE04C
:1024A000C2CE61E08CE00E94CC2261E0F8CF822FA6
:1024B00081708093C50121FB662760F96093C40198
:1024C000B4CE222309F4B1CE20937E00AECE21708B
:1024D0002093BA01AACE8091CF01882309F4A5CE1A
:1024E00081E08093CE01211180E08093CD0160E2F4
:1024F00070E086EE91E00E94071F62E170E086EED8
:1025000091E00E9479046091CD01660F656070E0F2
:1025100086EE91E00E94790486EE91E00E94821F8F
:1025200060E270E086EE91E00E94071F70E060E0DC
:1025300086EE91E00E94790468EF70E086EE91E00B
:102540000E94790486EE91E00E94821F60E270E0B2
:1025500086EE91E00E94071F61E070E086EE91E058
:102560000E94790470E060E086EE91E00E947904B8
:1025700086EE91E00E94821F60E270E086EE91E0BC
:102580000E94071F6CE070E086EE91E00E947904E3
:102590006FEF70E086EE91E00E94790486EE91E0A4
:1025A0000E94821F8091CD01880F81608093D001AD
:1025B00060E270E086EE91E00E94071F62E170E049
:1025C00086EE91E00E9479046091D00186EE91E060
:1025D0000E948F1E86EE91E00E94821F8091D001A2
:1025E00084608093D00160E270E086EE91E00E940A
:1025F000071F62E170E086EE91E00E94790460912D
:10260000D00137CE8091CE01882309F40ECE60E24E
:1026100070E086EE91E00E94071F63E170E086EEB5
:1026200091E00E9479046091D30186EE91E00E94CE
:102630008F1E86EE91E00E94821F8091CD01880F4F
:102640008C6F8093D00160E270E086EE91E00E9492
:10265000071F62E170E086EE91E00E9479046091CC
:10266000D00186EE91E00E948F1E86EE91E00E94DE
:10267000821F8091D0018160B4CF84E10E94FA2250
:10268000892B09F0FEC182E10E94FA228093D401D5
:102690001092D301882309F47CC08FEF8093D3017B
:1026A00085E992E00E942323181619060CF06DC0EC
:1026B00085E992E00E943D238093D3011092BC01F2
:1026C00061E081E00E94CC228091BB018E7F8093EB
:1026D000BB0181E080937D00CFEFCABB8091D30125
:1026E0008BBB60E08EE00E94CC2260E080E00E9424
:1026F000CC2282E090E00E944D221ABACBBB61E06E
:1027000080E00E94CC2261E08EE00E94CC22809189
:10271000C401882389F10E94EE21C090C001D090AD
:10272000C101E090C201F090C3019B01AC012C19E2
:102730003D094E095F0969017A0120917E0030E070
:10274000A8EEB3E00E9485276C157D058E059F05D8
:1027500098F460E081E00E94CC228091BB0182600D
:102760008093BB010E94EE216093C0017093C10170
:102770008093C2019093C301DF91CF911F910F917C
:10278000FF90EF90DF90CF90089581E08093BC019F
:1027900097CFE0917F00E058EB3058F5F0E0ED5234
:1027A000FC4E0C947F27DE1303142C1439145C1494
:1027B000B014B31406150B15101517158DE00E94F3
:1027C000FA228093D00162E08DE00E9490228DE099
:1027D0000E94FA2221E0892B09F020E02093D30106
:1027E00061E08DE00E9490226091D0018DE00E9416
:1027F000CC2280917F008D7F843809F46DCF8FEFDC
:1028000080937F0069CF8091CF01882391F360E2AC
:1028100070E086EE91E00E94071F62E170E086EEB4
:1028200091E00E94790486EE91E00E94821F60E2AE
:1028300070E086EE91E00E94071F41E050E060E208
:1028400070E086EE91E00E947F1F86EE91E00E948C
:10285000361E8093D301CDCF8091CF01882349F2DA
:1028600060E270E086EE91E00E94071F63E170E095
:10287000D6CFC091B901D0E0CC0FDD1FF09065013B
:1028800085E992E00E94232334E0181619060CF023
:1028900030E08091BC0128E0811101C020E08091EE
:1028A000BA0140E1849FC0011124C82BCF29C32B5A
:1028B000C22BC093D3019DCF8091B901882309F425
:1028C0004BC08091D1019091D201892BA1F442EBB0
:1028D000C42E41E0D42E53EBE52E51E0F52E04EB4F
:1028E00011E025EB31E046EB51E067EB71E088EB5E
:1028F00091E00E9483078091D1019091D2018730AD
:10290000910550F52091B50183309105E9F068F407
:102910002091B70181309105B9F02091B601823044
:10292000910591F02091B8010FC02091B30185303D
:10293000910551F02091B4018530910528F0209146
:10294000B2018630910571F72093D30101969093DF
:10295000D2018093D1014DCF8FEF80937F0049CF7B
:102960008091660076CF8091D1019091D201892B20
:10297000D1F48091610190916201811552E0950737
:1029800090F420916001203270F430916600311192
:102990000AC035E0880F991F3A95E1F7822B0E9413
:1029A0006D058093660080916600811122C0809140
:1029B000D1018F718093D001811113C063E671E062
:1029C00088E691E00E94350580936600809163015E
:1029D000803218F483E18093660080916600811153
:1029E00008C0E091D001F0E0E859FE4F808180936B
:1029F000D3018091D1019091D2018F3F21E09207C4
:102A000008F4A4CF2FEF20937F00A0CF88E891E0B7
:102A10000E9492181ECF85E992E00E94512319CF9F
:102A20008091BB018093D3011092BB01E2CE8091D3
:102A3000CE01882309F4DDCE60E270E086EE91E0FD
:102A40000E94071F62E170E086EE91E00E94790427
:102A500086EE91E00E94821F60E270E086EE91E0D7
:102A60000E94071F41E050E060E270E086EE91E0D6
:102A70000E947F1F86EE91E00E94361E887F816053
:102A8000E8CE61E081E00E94CC22A4CB8FB9779B95
:102A9000FECF08958FEF0E9446158FB10895FF92E3
:102AA0000F931F93CF93DF93C82FD42F152F062F8B
:102AB000F72E8091E30181113FC083E58DB91EB8E7
:102AC000C7FF09C040E050E0BA0187E70E944F15F8
:102AD000823060F5CF7761E084E00E94CC220E94D2
:102AE0004A1560E084E00E94CC220E944A158C2F97
:102AF0000E9446158F2D0E944615802F0E94461574
:102B0000812F0E9446158D2F0E94461585E9C034FD
:102B100021F087E8C83409F081E00E944615CAE038
:102B20000E944A1587FF02C0C150D1F7DF91CF91B3
:102B30001F910F91FF90089580E58DB981E08EB9C6
:102B4000BFCF0F931F93CF93DF93C091E101D0913B
:102B5000E2012197CD3F8FEFD80721F080E00E945E
:102B60004615F7CF0E944A158F71853079F0D1E074
:102B7000C0E061E084E00E94CC220E944A158D2FC3
:102B80009C2FDF91CF911F910F91089508E813E1D9
:102B9000C0E9D1E00E944A158F3F49F001151105A7
:102BA00031F3CE010197F1F701501109F3CFD1E0D4
:102BB000C0E0012BF1F2D0E0DCCFAF92BF92CF9218
:102BC000DF92EF92FF920F931F93CF93DF9300D08A
:102BD00000D0CDB7DEB78091E301882339F084E0DF
:102BE0000E94FA22892B11F40E94A11561E084E071
:102BF0000E94CC2261E084E00E94902261E085E0A6
:102C00000E94902261E087E00E94902261E084E0CF
:102C10000E94902283E58DB91EB861E084E00E9495
:102C2000CC221AE00E944A151150E1F740E050E032
:102C3000BA0180E40E944F15182F8130D9F010E0BE
:102C40001093E30161E084E00E94CC220E944A15C7
:102C500081E0111180E00F900F900F900F90DF91A5
:102C6000CF911F910F91FF90EF90DF90CF90BF9089
:102C7000AF9008954AEA51E060E070E088E40E9475
:102C80004F15813079F5CE0101967C016E0195E0FA
:102C9000C90ED11C87010E944A15F80181938F014A
:102CA000CE16DF06C1F78B81813049F68C818A3AD6
:102CB00031F620E1C22E27E2D22E30E9A32EBB242A
:102CC000B39440E050E060E070E489EE0E944F155C
:102CD000882359F1C5010197F1F7F1E0CF1AD10826
:102CE00081F7ADCF40E050E0BA0189EE0E944F1568
:102CF00001E4823010F412E009EE80E1E82E87E270
:102D0000F82E90E9C92EDD24D39440E050E0BA01BA
:102D1000802F0E944F158823F1F0C6010197F1F72B
:102D2000F1E0EF1AF10889F78ACF40E050E0BA01EC
:102D30008AE70E944F15811182CF0E944A15F70140
:102D400081937F010E171F07C1F789811CE086FD63
:102D500077CF14E075CF40E052E060E070E080E5AE
:102D60000E944F15882309F46BCF69CFCF92DF9271
:102D7000EF92FF920F931F93CF93DF937C01690132
:102D80008091E30183FD07C089E0440F551F661F52
:102D9000771F8A95D1F781E50E944F15811108C0F0
:102DA000C0E4DCE90E944A158F3F29F42197D1F74E
:102DB000C1E0D0E022C08E3FD9F7C2E0D2E0C01B14
:102DC000D10BCC19DD0981E0C81AD10818F00E9496
:102DD0004A15F9CFE114F10401F10E0D1F1D0E94F7
:102DE0004A15F70181937F010E171F07C1F70E9453
:102DF0004A152197E1F7D0E0C0E061E084E00E944D
:102E0000CC220E944A15CE01DF91CF911F910F91E4
:102E1000FF90EF90DF90CF9008950E944A150150E7
:102E20001109D9F7E4CFEF92FF920F931F93CF933D
:102E3000DF930097C9F0EA018C012097B1F1E0908F
:102E4000E101F090E201E114F10479F1F8018191DE
:102E50008F010E944615F1E0EF1AF108F092E201AD
:102E6000E092E1012197E9CF411551056105710516
:102E700029F18091E30183FD07C089E0440F551FCC
:102E8000661F771F8A95D1F788E50E944F1581113B
:102E90001DC08FEF0E9446158EEF0E94461580E000
:102EA00092E09093E2018093E10190E080E0DF9175
:102EB000CF911F910F91FF90EF900895DF91CF91E7
:102EC0001F910F91FF90EF900C94A11581E090E07D
:102ED000EECF0F931F93E091E401F091E5019B0188
:102EE000AC01225031094109510986819781A085A1
:102EF000B1850297A109B109281739074A075B076D
:102F000078F4A281B0E00E94942702891389248971
:102F10003589600F711F821F931F1F910F910895B4
:102F200060E070E0CB01F9CF0F931F93CF93DF9355
:102F3000EC01E091E401F091E501198218826C81C5
:102F40007D818E819F81613071058105910581F1BF
:102F500006811781208531856017710782079307E5
:102F600038F5611571058105910539F4208123300B
:102F700021F46685778580899189688779878A8732
:102F80009B87611571058105910569F00E9469179C
:102F90006C877D878E879F8790E080E0DF91CF915F
:102FA0001F910F9108956685778580899189F0CF6B
:102FB00081E090E0F3CF0F931F93CF93DF9300D086
:102FC00000D0CDB7DEB7623071058105910528F4D8
:102FD00061E070E080E090E055C0E091E401F091A4
:102FE000E501068117812085318560177107820709
:102FF000930770F7AB01BC018081823031F18330DF
:1030000039F79A012F773327220F331F220F331FEF
:1030100097E076956795579547959A95D1F782856C
:103020009385A485B585480F591F6A1F7B1F04E04F
:1030300010E0CE0101960E94B616892B49F66981EF
:103040007A818B819C819F701DC09A013327220F4A
:10305000331F452F562F672F772782859385A485A9
:10306000B585480F591F6A1F7B1F02E010E0CE0193
:1030700001960E94B616892B09F0AACF69817A8140
:1030800090E080E00F900F900F900F90DF91CF9124
:103090001F910F910895CF92DF92EF92FF920F93BD
:1030A0001F93CF93DF93EC016A017B0102E010E0F4
:1030B0002EEF31E00E94B616892B31F58881998177
:1030C00085359A4A59F526E330E0B701A601CE01CD
:1030D0000E94B616892B29F48881998186349144FF
:1030E00089F002E010E022E530E0B701A601CE0150
:1030F0000E94B616892BA1F481E0288139812634FB
:10310000314419F480E001C083E0DF91CF911F9139
:103110000F91FF90EF90DF90CF90089582E0F5CF70
:1031200081E0F3CF2F923F924F925F926F927F9206
:103130008F929F92AF92BF92CF92DF92EF92FF92C7
:103140000F931F93CF93DF93CDB7DEB7A4970FB63E
:10315000F894DEBF0FBECDBF1C011092E5011092A6
:10316000E4010E94DD1580FDC3C040E050E0BA01DB
:10317000CE0101960E944B18412C512C3201813016
:10318000C1F500E110E02EEB31E040E050E0BA0183
:10319000CE0101960E94B616892BD9F081E090E00D
:1031A000A4960FB6F894DEBF0FBECDBFDF91CF91CE
:1031B0001F910F91FF90EF90DF90CF90BF90AF9055
:1031C0009F908F907F906F905F904F903F902F9047
:1031D00008958D81811103C086E090E0E1CF49849C
:1031E0005A846B847C84B301A201CE0101960E94B3
:1031F0004B18833099F28111EFCF04E210E02DE0FB
:1032000030E0B301A201CE0101960E94B616892BCF
:1032100029F62A853B8550E040E02115310541051E
:10322000510521F4288D398D4A8D5B8DAC81B0E03C
:103230000E9494274B015C014A815B8170E060E051
:10324000440E551E661E771EF10142865386648623
:10325000758629812283CD80DE80D582C4828F81CC
:103260009885B0E0A0E00097A105B10521F48C8914
:103270009D89AE89BF8934E0D694C7943A95E1F729
:10328000F12CE12C841B950BA60BB70BBC01CD01D7
:10329000681979098A099B096C197D098E099F09AA
:1032A00030E050E040E00E945D27DA01C90102965B
:1032B000A11DB11DF10186839783A087B187265F89
:1032C0003F40410951092F3F3F4E4105510598F0BC
:1032D000873F9F4FA105B10598F47ECF82E0F101B1
:1032E0008083D301C201880D991DAA1DBB1D0FC08B
:1032F00082E090E055CF873F9F4FA105B10570F365
:1033000083E0F101808388A199A1AAA1BBA186874E
:103310009787A08BB18BC40CD51CE61CF71CC80C7E
:10332000D91CEA1CFB1CF101C28AD38AE48AF58A03
:1033300011823092E5012092E40190E080E030CFEC
:103340004F925F926F927F928F929F92BF92CF9295
:10335000DF92EF92FF920F931F93CF93DF93CDB73E
:10336000DEB7EC970FB6F894DEBF0FBECDBFC090AE
:10337000E401D090E501C114D10409F40DC1F601B6
:1033800011829E012F5C3F4F3CA32BA39C0179012E
:10339000F90180812F5F3F4F8032C9F38F3209F4EA
:1033A00079011DA21EA21FA218A6F7018081A0E22A
:1033B000BA2E803208F0DDC0CE0181960E949417AB
:1033C0001982009709F410C1EC960FB6F894DEBF8D
:1033D0000FBECDBFDF91CF911F910F91FF90EF9066
:1033E000DF90CF90BF909F908F907F906F905F9075
:1033F0004F90089520E0E0E088E0D8C0E30EF11C93
:1034000081E0913208F080E01B968C93CE0181968A
:103410000E9494170097C1F629A13AA12F70332773
:10342000F5E0220F331FFA95E1F74DA55EA56FA5D4
:1034300078A900E210E0CE0101960E94B616892B11
:1034400019F081E090E0C0CF8981811103C083E051
:1034500090E0BACF8C8583FD13C00BA11CA19E0107
:103460002F5F3F4FD801B801655F7F4F6A177B0719
:1034700009F4B5C0F90141919F019D914917B1F33C
:1034800009A11AA10F5F1F4F11F38DA59EA5AFA52E
:10349000B8A90097A105B105D1F298012F70332783
:1034A000232BD9F48090E4019090E5010196A11DB1
:1034B000B11D8DA79EA7AFA7B8AB69A57AA58BA5AF
:1034C0009CA5F401611571058105910549F484817C
:1034D00095810817190708F0BACF1AA309A39CCF42
:1034E0002281E22FE150FF0BAF019801E4E0369515
:1034F0002795EA95E1F724233523232B71F70E94C2
:10350000DB17623071058105910508F49ACFF4014B
:10351000468057806084718464157505860597051B
:1035200008F095CF69A77AA78BA79CA70E94691777
:103530006DA77EA78FA798ABD0CF84FF88CFE091EF
:10354000E401F091E50180818330F1F48D899E8959
:10355000B0E0A0E0DC01992788274B8D5C8D70E0FE
:1035600060E0842B952BA62BB72B8DA39EA3AFA336
:10357000B8A7ABA1BCA1FD01CD010B968E179F078B
:1035800009F438CFB192FACF80E090E0DC01E5CFCA
:1035900080E090E0DC013DC085E090E015CF883010
:1035A00009F02CCF9BE0282FE32F892F31E03E0F2D
:1035B000EE0DFF2DF11D9081913208F41FCF9F3247
:1035C00009F41CCF9E3259F3281708F017CFFD01DC
:1035D000E20FF11D9083982F81E0820FE4CFF80174
:1035E0009385992309F4A9CF8981882309F42FCFE2
:1035F0008C8584FD2CCFE091E401F091E501808180
:10360000833031F68D899E89B0E0A0E0DC019927F6
:1036100088274B8D5C8D70E060E0842B952BA62B6A
:10362000B72BF601868F978FA0A3B1A38D8D9E8DAA
:10363000AF8DB8A1828F938FA48FB58F168A178A0A
:10364000108E118E81E0818390E080E0BDCE4F929C
:103650005F926F927F928F929F92AF92BF92CF9222
:10366000DF92EF92FF920F931F93CF93DF934C0162
:103670007B013A01C091E401D091E501FA01118288
:10368000108285E090E0209709F44BC0898180FF8B
:10369000AAC08A8D9B8DAC8DBD8D4E895F89688D4A
:1036A000798D841B950BA60BB70BA70170E060E02A
:1036B00084179507A607B70708F47C015401412C2D
:1036C00032E0532EE114F10409F490C08E899F89F1
:1036D000A88DB98DAC01BD01517066277727452BA8
:1036E000462B472B09F04CC0DA80DA94AC01BD01BF
:1036F00029E076956795579547952A95D1F7D42275
:1037000061F5892B8A2B8B2BE9F46E8D7F8D88A137
:1037100099A16230710581059105D8F4198281E083
:1037200090E0DF91CF911F910F91FF90EF90DF908C
:10373000CF90BF90AF909F908F907F906F905F9051
:103740004F9008956AA17BA18CA19DA10E94DB17D7
:10375000E0CF6AA37BA38CA39DA36AA17BA18CA1CC
:103760009DA10E9469176115710581059105B1F24E
:103770006D0D711D811D911D6EA37FA388A799A753
:103780002E893F893170C201821B930B67018E1510
:103790009F0508F46C014EA15FA168A579A5C5013C
:1037A0008114910411F480E090E086010E94B61625
:1037B000892B09F0B3CF8E899F89A88DB98D8C0D87
:1037C0009D1DA11DB11D8E8B9F8BA88FB98FAC0C39
:1037D000BD1CEC18FD08F30180819181C80ED91E33
:1037E000D182C0826FCF84E090E09BCF90E080E0F8
:1037F00098CF4F925F926F927F928F929F92AF92EB
:10380000BF92CF92DF92EF92FF920F931F93CF93CD
:10381000DF936C018B015A01C091E401D091E50165
:10382000FA011182108285E090E02097A1F0898151
:1038300080FFE0C08074672B29F58823E9F040E021
:1038400050E0BA0190E080E00E941317892BA1F0AC
:10385000198281E090E0DF91CF911F910F91FF904D
:10386000EF90DF90CF90BF90AF909F908F907F9020
:103870006F905F904F90089589818F7B898390E04E
:1038800080E0E9CF81110AC08E899F89A88DB98D0A
:1038900088279E7F8E8B9F8BA88FB98F8A8D9B8D5B
:1038A000AC8DBD8D4E895F89688D798D841B950B9C
:1038B000A60BB70BA80170E060E084179507A60778
:1038C000B70708F48C01812C32E0932E0115110505
:1038D000B1F28E899F89A88DB98D9C013170232BFF
:1038E00009F040C0FA80FA94AC01BD0129E0769558
:1038F0006795579547952A95D1F7F42299F4892B26
:103900008A2B8B2B09F06FC06E8D7F8D88A199A1BA
:10391000623071058105910508F49ACF6AA37BA3F3
:103920008CA39DA36AA17BA18CA19DA10E94691774
:10393000611571058105910509F48ACFAB01BC01C0
:103940004F0D511D611D711D4EA35FA368A779A77F
:1039500090E080E00E941317892B09F079CF8981CC
:10396000806489838E899F8991709401281B390B0B
:1039700078012017310708F479012701712C612C97
:10398000B301A701C6010E941317892B09F060CF6C
:103990008E899F89A88DB98D840D951DA61DB71D93
:1039A0008E8B9F8BA88FB98FCE0CDF1C0E191F0931
:1039B000F50120813181E20EF31EF182E0822C01BB
:1039C000F1E05F22452809F081CF40E050E0BA01E4
:1039D00090E080E00E941317892B09F039CF89818C
:1039E0008F7B898373CF6AA17BA18CA19DA10E944B
:1039F000DB178ECF84E090E02ECF4F925F926F92D4
:103A00007F928F929F92AF92BF92CF92DF92EF926E
:103A1000FF92CF93DF9300D000D000D0CDB7DEB7B8
:103A20002091E4013091E5013E832D83211531057C
:103A300009F40CC1D90111962C91119720FF09C1ED
:103A40005A96CD90DD90ED90FC905D976C157D05BC
:103A50008E059F0510F46B017C01ED81FE81468887
:103A60005788608C718C168A178A108E118EC1143B
:103A7000D104E104F10409F4E6C08280912CB12C58
:103A8000A12C39E0880C991CAA1CBB1C3A95D1F7D3
:103A9000411451046104710409F470C0B1E04B1A7F
:103AA000510861087108C701B601615071098109A7
:103AB0009109A50194010E945D2729833A834B83D4
:103AC0005C83C301B201A50194010E945D27898135
:103AD0009A81AB81BC8182179307A407B50708F4CC
:103AE0004DC088279927DC0188199909AA09BB09C3
:103AF00084219521A621B721ED81FE81868B978BAC
:103B0000A08FB18FC81AD90AEA0AFB0A62A173A171
:103B100084A195A18C149D04AE04BF0408F058C084
:103B20000E94DB17623071058105910568F0AD8157
:103B3000BE8116964D905D906D907C90199764159E
:103B400075058605970540F1ED81FE81118281E0C2
:103B500090E026960FB6F894DEBF0FBECDBFDF9182
:103B6000CF91FF90EF90DF90CF90BF90AF909F905C
:103B70008F907F906F905F904F900895AD81BE8140
:103B80005E966D917D918D919C919197FD0162A3BF
:103B900073A384A395A3BECFAD81BE8192966D938E
:103BA0007D938D939C93959756964D905D906D90D7
:103BB0007C905997480C591C6A1C7B1CFD01468A55
:103BC000578A608E718EC818D908EA08FB08A2CF00
:103BD000AD81BE8156968D909D90AD90BC905997C9
:103BE000C80CD91CEA1CFB1CFD01C68AD78AE08ED2
:103BF000F18E0E946917AB01BC01411551056105A9
:103C0000710529F4AD81BE8111961C92A0CFED8182
:103C1000FE8182818150990B092E000CAA0BBB0BEF
:103C200029E0F694E794D794C7942A95D1F78C218C
:103C30009D21AE21BF21480F591F6A1F7B1F46A33C
:103C400057A360A771A790E080E083CF85E090E064
:103C500080CF84E090E07DCF90E080E00895809177
:103C60001A0290911B02891B990B089590911B02D7
:103C700080911A022FEF3FEF981748F4E92FF0E0F8
:103C8000E45EFD4F208130E09F5F90931B02C901ED
:103C90000895E0911B0280911A02E81730F4F0E0D9
:103CA000E45EFD4F808190E008958FEF9FEF0895CF
:103CB0000895CF93DF93EC01E091F201F091F301CD
:103CC0003097F1F090911B0280911A029817C0F082
:103CD00090E0292F30E02617370754F4DE01A20FB9
:103CE000B31F4C91245E3D4FD9014C939F5FF1CFA0
:103CF00010921B0260931A02CB01DF91CF910994BD
:103D0000DF91CF910895E091F401F091F5013097A2
:103D100029F01092F8011092F70109940895CF93B9
:103D2000DF931F92CDB7DEB769832091F60122237E
:103D3000F9F02091F701203258F021E030E0FC0149
:103D40003383228390E080E00F90DF91CF9108953C
:103D50008091F801E82FF0E0E750FE4F99819083C1
:103D60008F5F8093F8018093F70181E090E0ECCFC2
:103D700061E0CE0101960E943620F7CFCF92DF920C
:103D8000EF92FF920F931F93CF93DF937C01CB01B0
:103D90008A012091F601222389F0EB016B01C40E08
:103DA000D51ECC15DD0569F06991D701ED91FC9127
:103DB0000190F081E02DC7010995F3CF642F0E9497
:103DC0003620C801DF91CF911F910F91FF90EF90A6
:103DD000DF90CF90089510921B0210921A02109259
:103DE000F8011092F7010E94961F83E89EE10E945D
:103DF000622089E59EE10C945D2081E08093F601CC
:103E0000609319021092F8011092F70108950C9432
:103E1000FD1E0F93062F21E04091F70169EF71E03D
:103E2000809119020E94E91F1092F8011092F70187
:103E30001092F6010F9108954F925F926F927F92C8
:103E4000AF92BF92CF92EF92FF920F931F93CF93B7
:103E5000DF935C01F62ED42F28013901EE2019F1F1
:103E60000E94FD1ECE2DC43008F0C3E0C150B8F052
:103E700028E0C29FC0011124A301920104C05695FD
:103E80004795379527958A95D2F7B901D501ED91D8
:103E9000FC910190F081E02DC5010995E7CF60E02C
:103EA000C5010E94091F4D2FD13208F040E22C2D90
:103EB0006CE172E08F2D0E94AC1F10921B02809368
:103EC0001A02DF91CF911F910F91FF90EF90CF9049
:103ED000BF90AF907F906F905F904F900895CF927A
:103EE000EF920F931F93C22EE12C00E010E0980197
:103EF0000E941C1F1F910F91EF90CF90089521E019
:103F00000C946F1F61E00C94091FE6EEF1E0138240
:103F1000128288EE93E0A0E0B0E084839583A683CC
:103F2000B78386E391E091838083089510928B029A
:103F300081E0809389021092880261E081E10E9411
:103F4000CC2261E080E10E94CC220898099888E4A4
:103F500080B985E486BF08954132C8F590918B02FF
:103F60009111FCCF91E090938B02209389022FEF67
:103F700020933C027093830260938202109281022C
:103F8000240F2093800290938A0290918A02880FD6
:103F9000892B80938A02809188028130B1F410923B
:103FA000880280918A0283B906B603FCFACF85ECB9
:103FB00086BF80918B028130E1F38091810284176A
:103FC00010F440918102842F089585EEF1CF40E0F6
:103FD000FACF0F93413208F041C090918B029111BA
:103FE000FCCF92E090938B02009389029FEF909315
:103FF0003C0270938302609382021092810240938C
:10400000800210928A0290918A02880F892B8093F5
:104010008A02809188028130F9F41092880280919E
:104020008A0283B906B603FCFACF85EC86BF222349
:1040300021F080918B028230D1F380913C028F3F3E
:1040400079F080913C02803269F080913C028033AB
:1040500059F084E00F91089585EEE8CF81E0FACF22
:1040600080E0F8CF82E0F6CF83E0F4CF20915E02CB
:10407000260F3327331F21323105ECF420918B02B8
:10408000FC0190E080E0243069F082E00895A09186
:104090005E022191AC01405A5D4FA40FB52FB11DB6
:1040A0002C930196861798F380915E02680F6093B7
:1040B0005E0280E0089581E00895909385028093E8
:1040C000840208959093870280938602089585ED77
:1040D00086BF06B604FCFDCF10928B02089585ECD6
:1040E00086BF10928B0208951F920F920FB60F9207
:1040F00011242F933F934F935F936F937F938F93ED
:104100009F93AF93BF93EF93FF9381B1887F8036E6
:1041100009F44CC008F03FC0883209F4A4C018F577
:10412000803109F49AC0B8F4882309F4FEC08830BD
:1041300009F493C0FF91EF91BF91AF919F918F913F
:104140007F916F915F914F913F912F910F900FBE93
:104150000F901F901895883109F485C0803251F76F
:1041600080933C0215C0803409F4A1C048F4803328
:10417000B9F38833F9F680933C020E946F20DACFBE
:10418000803509F485C0883509F499C0883491F6E2
:104190000E946720CFCF883909F48FC030F5883767
:1041A00029F050F4883611F0803721F683E08093AF
:1041B0008B0210923D0254C0883809F47EC08039C9
:1041C00019F0803809F0B6CF80913D02803208F0B6
:1041D00074C0E0913D0281E08E0F80933D0283B177
:1041E000F0E0E25CFD4F80833BC0803B39F0E0F4BF
:1041F000803A09F47FC0883A09F09CCF84E080932C
:104200008B0210925F0210925E02E0918602F091A2
:104210008702099580915E0281110FC081E0809331
:104220005E021092600209C0803C09F47CC0883CA8
:1042300009F479C0883B09F07DCFE0915F0281E00D
:104240008E0F80935F02F0E0E05AFD4F808183B9CA
:1042500090915F0280915E022EC080918A0283B9A4
:1042600085EC86BF67CF909181028091800298177C
:10427000A8F58091820290918302E091810221E071
:104280002E0F20938102E80FF92FF11D8081E7CFD7
:104290002091820230918302E091810281E08E0FB1
:1042A0008093810283B1E20FF32FF11D80839091FF
:1042B000810280918002981798F285E8D2CF2091F0
:1042C000820230918302E091810281E08E0F80931F
:1042D000810283B1E20FF32FF11D80838091890267
:1042E000811156CF81E08093880284EA86BF1092C4
:1042F0008B0220CF0E946F2080913D02803230F4EB
:10430000E0913D02F0E0E25CFD4F108260913D02E1
:1043100070E0E0918402F09185028EE392E00995CD
:1043200010923D0207CF85ECE1CF10923C0230CFD6
:104330001F920F920FB60F9211242F933F938F93DA
:104340009F93AF93BF938091910290919202A0911D
:104350009302B09194023091900223E0230F2D3705
:1043600068F126E8230F0296A11DB11D209390024B
:104370008093910290939202A0939302B09394023F
:1043800080918C0290918D02A0918E02B0918F024B
:104390000196A11DB11D80938C0290938D02A09374
:1043A0008E02B0938F02BF91AF919F918F913F91F9
:1043B0002F910F900FBE0F901F9018950196A11D81
:1043C000B11DD4CF2FB7F8946091910270919202F1
:1043D00080919302909194022FBF08953FB7F89473
:1043E00080918C0290918D02A0918E02B0918F02EB
:1043F00022B708B600FE05C02F3F19F00196A11D97
:10440000B11D3FBFBA2FA92F982F8827BC01CD011E
:10441000620F711D811D911D42E0660F771F881F7D
:10442000991F4A95D1F708958F929F92AF92BF92AC
:10443000CF92DF92EF92FF926B017C010E94EE21FE
:104440004B015C01C114D104E104F104E9F00E94C4
:1044500050270E94EE21681979098A099B09683E54
:1044600073408105910570F321E0C21AD108E1087B
:10447000F10888EE880E83E0981EA11CB11CC114BF
:10448000D104E104F10429F7FF90EF90DF90CF9081
:10449000BF90AF909F908F9008958230910538F033
:1044A000880F991F880F991F05970197F1F70895B5
:1044B000789483B7836083BF83B7886483BF89B7E9
:1044C000816089BF82E08EBD8EB581608EBD8FB563
:1044D00081608FBD85B5846085BD85B5806485BDEF
:1044E00087E886B91AB80895843059F028F48130E5
:1044F00099F0823089F00895853039F0873041F0A5
:1045000008958FB58F778FBD08958FB58F7DFBCFC1
:1045100085B58F7D85BD089583B78F7D83BF089551
:10452000CF93DF9390E0FC01E45FF74F2491845D2B
:10453000974FFC0184918823C9F090E0880F991F60
:10454000FC01E05AF74FA591B491FC01EA5AF74FEC
:10455000C591D49161110DC09FB7F8948C912095AD
:1045600082238C938881282328839FBFDF91CF915A
:104570000895623051F49FB7F8943C91822F809552
:1045800083238C93E8812E2BEFCF8FB7F894EC9197
:104590002E2B2C938FBFEACF1F93CF93DF93282F1F
:1045A00030E0F901E451F84F8491F901E45FF74FED
:1045B000D491F901E45DF74FC491CC23A9F0162FF3
:1045C00081110E947422EC2FF0E0EE0FFF1FEA5AD7
:1045D000F74FA591B4918FB7F894EC91111108C0E1
:1045E000D095DE23DC938FBFDF91CF911F9108958B
:1045F000DE2BF8CFCF93DF93282F30E0F901E45181
:10460000F84F8491F901E45FF74FD491F901E45D2B
:10461000F74FC491CC23A1F081110E947422EC2F9A
:10462000F0E0EE0FFF1FE45BF74FA591B491EC9122
:10463000ED2381E090E009F480E0DF91CF910895CF
:1046400080E090E0FACFFC01918D228D892F90E0DF
:1046500080589F4F821B91098F7799270895FC01FD
:10466000918D828D981731F0828DE80FF11D858D27
:1046700090E008958FEF9FEF0895FC01918D828D5A
:10468000981761F0A28DAE0FBF2FB11D5D968C9172
:10469000928D9F5F9F77928F90E008958FEF9FEFAD
:1046A0000895FC01538D448D252F30E0842F90E038
:1046B000821B930B541710F0CF960895019708951D
:1046C0008CEA94E2892B49F086E496E0892B29F064
:1046D0000E94AC2481110C9446060895FC01A48D1F
:1046E000A80FB92FB11DA356BF4F2C91848D90E018
:1046F00001968F739927848FA689B7892C93A089F7
:10470000B1898C9182748C93938D848D981306C09B
:104710000288F389E02D80818F7D80830895CF9377
:10472000DF93EC01888D8823B9F0AA89BB89E889D9
:10473000F9898C9185FD03C0808186FD0DC00FB67F
:1047400007FCF7CF8C9185FFF2CF808185FFEDCFFD
:10475000CE010E946E23E9CFDF91CF910895EF92B1
:10476000FF920F931F93CF93DF93EC0181E0888F2B
:104770009B8D8C8D981319C0E889F989808185FFFC
:1047800014C09FB7F894EE89FF896083E889F9899E
:104790008081827480839FBF81E090E0DF91CF9120
:1047A0001F910F91FF90EF900895F62E0B8D10E062
:1047B0000F5F1F4F0F731127E02E8C8D8E110CC0D1
:1047C0000FB607FCFACFE889F989808185FFF5CF1C
:1047D000CE010E946E23F1CFEB8DEC0FFD2FF11D6A
:1047E000E356FF4FF0829FB7F8940B8FEA89FB895D
:1047F00080818062CFCFCF92DF92EF92FF921F93A2
:10480000CF93DF93EC016A017B01122FE889F989CC
:1048100082E08083C11481EED806E104F104A1F0A6
:1048200060E079E08DE390E0A70196010E945D27AA
:1048300021503109410951095695479537952795DA
:10484000211580E1380798F0E889F989108260E83D
:1048500074E88EE190E0A70196010E945D27215047
:104860003109410951095695479537952795EC85AA
:10487000FD853083EE85FF852083188E1068EC89D6
:10488000FD891083EA89FB89808188698083EA89B0
:10489000FB8980818F7D8083DF91CF911F91FF9075
:1048A000EF90DF90CF9008951F920F920FB60F9266
:1048B00011242F938F939F93EF93FF93E091A50281
:1048C000F091A6028081E091AB02F091AC0282FDF2
:1048D0001BC090818091AE028F5F8F772091AF02D5
:1048E000821741F0E091AE02F0E0EB56FD4F958F5C
:1048F0008093AE02FF91EF919F918F912F910F9036
:104900000FBE0F901F9018958081F4CF1F920F92C9
:104910000FB60F9211242F933F934F935F936F9392
:104920007F938F939F93AF93BF93EF93FF9385E90B
:1049300092E00E946E23FF91EF91BF91AF919F9102
:104940008F917F916F915F914F913F912F910F9038
:104950000FBE0F901F90189585E992E00E942323C7
:1049600021E0892B09F420E0822F0895E5E9F2E0A7
:104970001382128288EE93E0A0E0B0E084839583F6
:10498000A683B78388E491E09183808380E490E0FC
:104990009587848729E230E0378726872BE230E04D
:1049A000318B208B2AE230E0338B228B958B848BEA
:1049B0008CE290E0978B868B118E128E138E148E64
:1049C0000895AF92BF92CF92DF92EF92FF920F9332
:1049D0001F93CF93DF936C017B018B01040F151F95
:1049E000EB015E01AE18BF08C017D10759F06991FD
:1049F000D601ED91FC910190F081E02DC601099561
:104A0000892B79F7C501DF91CF911F910F91FF900D
:104A1000EF90DF90CF90BF90AF900895FB01019091
:104A20000020E9F73197AF01461B570BDC01ED91F0
:104A3000FC910280F381E02D0994EF92FF920F9395
:104A40001F93CF93DF938C017B01D0E0C0E0F7018F
:104A5000EC0FFD1F6491662361F0D801ED91FC918C
:104A60000190F081E02DC8010995892B11F0219664
:104A7000EECFCE01DF91CF911F910F91FF90EF907C
:104A800008956115710511F00C940E2590E080E0F9
:104A90000895DC01ED91FC910190F081E02D0994E5
:104AA00066E571E00C940E250F931F93CF93DF936F
:104AB000EC010E941D258C01CE010E945025800F23
:104AC000911FDF91CF911F910F9108950F931F9325
:104AD000CF93DF938C01D0E0C0E06115710519F030
:104AE0000E940E25EC01C8010E9450258C0F9D1FCD
:104AF000DF91CF911F910F9108950F931F93CF9343
:104B0000DF93EC010E9449258C01CE010E945025C3
:104B1000800F911FDF91CF911F910F9108958F9278
:104B20009F92AF92BF92EF92FF920F931F93CF93FA
:104B3000DF93CDB7DEB7A1970FB6F894DEBF0FBEF7
:104B4000CDBF7C01FA01CB0119A2223008F42AE082
:104B50008E010F5D1F4F822E912CB12CA12CBF0115
:104B6000A50194010E945D27F901CA016A300CF584
:104B7000605DD8016E938D01232B242B252B79F7B3
:104B800090E080E0109721F0BD01C7010E940E2542
:104B9000A1960FB6F894DEBF0FBECDBFDF91CF91C7
:104BA0001F910F91FF90EF90BF90AF909F908F90CB
:104BB0000895695CDECFCF92DF92EF92FF920F9360
:104BC0001F93CF93DF932115310581F4DC01ED9123
:104BD000FC910190F081E02D642FDF91CF911F9126
:104BE0000F91FF90EF90DF90CF9009942A3031051C
:104BF00001F52AE077FF1DC06A017B01EC016DE23F
:104C00000E9449258C0144275527BA014C195D099A
:104C10006E097F092AE0CE010E948F25800F911F27
:104C2000DF91CF911F910F91FF90EF90DF90CF9088
:104C30000895DF91CF911F910F91FF90EF90DF903A
:104C4000CF900C948F259A01AB01770F660B770BF1
:104C50000C94DB252115310541F4DC01ED91FC912B
:104C60000190F081E02D642F09940C948F259A0116
:104C7000462F50E070E060E00C942A26FC01808111
:104C80009181009711F00C943B280895CF93DF9306
:104C9000EC0188819981009711F00E943B281982CC
:104CA00018821D821C821B821A82DF91CF91089587
:104CB0000F931F93CF93DF93EC018B016F5F7F4FB7
:104CC000888199810E94C428009751F09983888334
:104CD0001B830A8381E0DF91CF911F910F9108958B
:104CE00080E0F9CFCF93DF93EC0188819981892B04
:104CF00049F08A819B818617970720F081E0DF9138
:104D0000CF910895CE010E9458268823C1F38C814B
:104D10009D81892B99F7E881F9811082EFCFEF927D
:104D2000FF920F931F93CF93DF93EC017B018A01D6
:104D3000BA010E94722681110BC0CE010E94462644
:104D4000CE01DF91CF911F910F91FF90EF900895C9
:104D50001D830C83B701888199810E94B129F0CF0E
:104D6000FC01118210821382128215821482611555
:104D7000710551F0FB0101900020E9F73197AF0177
:104D8000461B570B0C948F260895FB0101900020C1
:104D9000E9F73197AF01461B570B0C948F26CF9341
:104DA000DF93EC016115710531F00E94C526CE013B
:104DB000DF91CF9108950E944626F9CFFC0124810E
:104DC00035816217730748F480819181009729F03B
:104DD000860F971FFC018081089580E00895AF92AF
:104DE000BF92CF92DF92EF92FF920F931F93CF93D8
:104DF000DF935C016B017A0189012417350720F4E8
:104E00008F2D7901042F182F68E571E0C5010E94EC
:104E1000B026D6011496CD91DC91EC16FD06C8F4AF
:104E20000C171D0708F4E801D601ED91FC911197CC
:104E3000EC0FFD1F108110826D917C916E0D7F1D16
:104E4000C5010E94CF26F60180819181C80FD91F2C
:104E50001883C501DF91CF911F910F91FF90EF90C3
:104E6000DF90CF90BF90AF900895FC018081918139
:104E7000009711F00C94812960E070E0CB01089557
:104E800008950E9458220E9440270E94B70BC0E656
:104E9000D3E20E94C6102097E1F30E946023F9CF6D
:104EA0000895991B79E004C0991F961708F0961B86
:104EB000881F7A95C9F780950895A1E21A2EAA1B3A
:104EC000BB1BFD010DC0AA1FBB1FEE1FFF1FA217BA
:104ED000B307E407F50720F0A21BB30BE40BF50BB7
:104EE000661F771F881F991F1A9469F76095709540
:104EF000809590959B01AC01BD01CF010895EE0F07
:104F0000FF1F0590F491E02D0994A29FB001B39F7B
:104F1000C001A39F700D811D1124911DB29F700DC2
:104F2000811D1124911D08950E948527A59F900D34
:104F3000B49F900DA49F800D911D112408950F938F
:104F40001F93CF93DF938230910510F482E090E0BD
:104F5000E0917403F091750330E020E0B0E0A0E050
:104F6000309799F42115310509F44AC0281B390BF3
:104F700024303105D8F58A819B816115710589F14D
:104F8000FB0193838283FE0111C040815181028124
:104F9000138148175907E0F04817590799F41097FB
:104FA00061F012960C93129713961C933296CF01D0
:104FB000DF91CF911F910F91089500937403109387
:104FC0007503F4CF2115310551F04217530738F01E
:104FD000A901DB019A01BD01DF01F801C1CFEF0199
:104FE000F9CF9093750380937403CDCFFE01E20F48
:104FF000F31F819391932250310939832883D7CFAE
:105000002091720330917303232B41F420916200AD
:1050100030916300309373032093720320916000FA
:10502000309161002115310541F42DB73EB7409113
:10503000640050916500241B350BE0917203F091E0
:105040007303E217F307A0F42E1B3F0B2817390751
:1050500078F0AC014E5F5F4F2417350748F04E0FD4
:105060005F1F5093730340937203819391939FCF7B
:10507000F0E0E0E09CCFCF93DF930097E9F0FC01F4
:10508000329713821282A0917403B0917503ED01DF
:1050900030E020E01097A1F420813181820F931F2E
:1050A00020917203309173032817390709F061C00A
:1050B000F0937303E0937203DF91CF910895EA01B7
:1050C000CE17DF07E8F54A815B819E014115510546
:1050D000B1F7E901FB83EA8349915991C40FD51FC8
:1050E000EC17FD0761F4808191810296840F951F72
:1050F000E90199838883828193819B838A83F0E08D
:10510000E0E012968D919C9113970097B9F52D913F
:105110003C911197CD010296820F931F209172034B
:10512000309173032817390739F6309751F51092EB
:10513000750310927403B0937303A0937203BCCFF2
:10514000D383C28340815181840F951FC817D9072B
:1051500061F44E5F5F4F88819981480F591F5183D9
:1051600040838A819B81938382832115310509F0D5
:10517000B0CFF0937503E09374039ECFFD01DC0183
:10518000C0CF13821282D7CFB0E0A0E0EAECF8E201
:105190000C94E4298C01009751F4CB010E949F27C5
:1051A0008C01C801CDB7DEB7E0E10C94002AFC0108
:1051B000E60FF71F9C0122503109E217F30708F4AC
:1051C0009DC0D901CD91DC911197C617D70798F0F2
:1051D000C530D10530F3CE0104978617970708F341
:1051E000C61BD70B2297C193D1936D937C93CF01AC
:1051F0000E943B28D6CF5B01AC1ABD0A4C018C0E35
:105200009D1EA0917403B0917503512C412CF12C7B
:10521000E12C109731F580917203909173038815FA
:10522000990509F05CC04616570608F058C08091F1
:10523000600090916100009741F48DB79EB7409156
:10524000640050916500841B950BE817F90708F07E
:1052500055C0F0937303E0937203F9017183608387
:10526000A0CF8D919C91119712966C9012971396E6
:105270007C901397A815B90559F56C0142E0C40E4E
:10528000D11CCA14DB0420F1AC014A195B09DA0114
:105290001296159780F06282738251834083D90100
:1052A0006D937C93E114F10471F0D7011396FC9394
:1052B000EE93129776CF22968C0F9D1FF901918362
:1052C0008083F301EFCFF0937503E093740369CF0C
:1052D0004816590608F42C017D01D3019ACFCB0161
:1052E0000E949F277C01009749F0AE01B8010E94FF
:1052F000A829C8010E943B28870153CF10E000E095
:1053000050CF1F93FC0199278827BC01E894119185
:105310001032E9F3193010F01E30C8F31B3251F08F
:105320001D3249F4689406C00E94B829610F711DAE
:10533000811D911D119110531A30B0F33EF49095D8
:105340008095709561957F4F8F4F9F4F1F91089566
:10535000FB01DC0102C001900D9241505040D8F792
:105360000895FB01DC0101900D920020E1F7089502
:10537000592F482F372F262F660F771F881F991F09
:10538000660F771F881F991F620F731F841F951F59
:10539000660F771F881F991F0895E199FECF9FBB65
:1053A0008EBBE09A99278DB30895262FE199FECF01
:1053B0009FBB8EBB2DBB0FB6F894E29AE19A0FBE4D
:1053C000019608952F923F924F925F926F927F9233
:1053D0008F929F92AF92BF92CF92DF92EF92FF9205
:1053E0000F931F93CF93DF93CDB7DEB7CA1BDB0BB1
:1053F0000FB6F894DEBF0FBECDBF09942A88398856
:1054000048885F846E847D848C849B84AA84B9845C
:10541000C884DF80EE80FD800C811B81AA81B98168
:10542000CE0FD11D0FB6F894DEBF0FBECDBFED017C
:10543000089514E0C8E3D4E004C0FE010E947F2771
:105440002196C933D107C9F7F894FFCF000076033E
:105450008000134453784E414D2E44415400445330
:10546000784E79792E44534B000164FF202800299F
:10547000004469736B20536574200031333A35342E
:105480003A333000536570203234203230323300EA
:105490002F003A004300340038004F4E0042415381
:1054A000494334372E42494E00464F525448313317
:1054B0002E42494E0043504D32322E42494E005149
:1054C000504D4C44522E42494E0043504D4C445294
:1054D0002E434F4D00554353444C44522E42494EA7
:1054E00000434F532E42494E0046555A49582E42CA
:1054F000494E004155544F424F4F542E42494E00A1
:105500005802B0046009C0128025004B80700096DC
:1055100000E11F1C1F1E1F1E1F1F1E1F1E1F00003D
:1055200000008F1EBE1E2C1E581E2F1E361E491E2A
:1055300000000000AF23E12451238F2323233D23C8
:065540002F230D0A0000FC
:107E000001C0B2C011248FE598E09EBF8DBF84B73A
:107E1000882361F0982F9A70923041F081FF02C060
:107E200097EF94BF282E80E0BAD0EAC085E08EBDDF
:107E300082E08BB988E18AB986E880BD80E189B9A2
:107E40008EE0ADD0B89A84E020E33CEF44E051E00E
:107E50003DBD2CBD48BF08B602FEFDCF98B39527A7
:107E600098BBA8955F9902C0815091F791D0813459
:107E700079F48ED0182F97D0123811F480E004C016
:107E800088E0113809F083E07FD080E17DD0EECF2B
:107E9000823419F484E18FD0F8CF853411F485E071
:107EA000FACF853541F474D0C82F72D0D82FCC0FBB
:107EB000DD1F79D0EACF863519F484E07CD0DECF9F
:107EC000843699F565D064D0182F62D0D82E012F52
:107ED00090E6E92EF12C57018FEFA81AB80A58D076
:107EE000F701808301507501B1F75DD0F5E4DF1231
:107EF00001C0FFCF50E040E063E0CE0135D07E010D
:107F000080E6C82ED12CF601419151916F0161E0BC
:107F1000C7012AD0F2E0EF0EF11C1250A1F750E099
:107F200040E065E0CE0120D0B0CF843771F430D08E
:107F30002FD0F82E2DD037D08E01F80185918F01EA
:107F400023D0FA94F110F9CFA0CF853739F42BD094
:107F50008EE11AD085E918D082E096CF813509F0FC
:107F6000A8CF88E01CD0A5CFFC010A0167BFE89527
:107F7000112407B600FCFDCF667029F0452B19F4DB
:107F800081E187BFE89508955D9BFECF8CB9089588
:107F90005F9BFECF5C9901C0A8958CB1089598E1D4
:107FA00091BD81BD0895F4DF803219F088E0F7DFDC
:107FB000FFCF84E1E9CFCF93C82FEADFC150E9F7C3
:047FC000CF91F1CF9D
:027FFE00000879
:00000001FF
