:100200000C9404040C9421040C9421040C945D07B8
:100210000C9421040C9421040C9421040C942104CA
:100220000C9421040C94B9110C9421040C94210415
:100230000C9421040C9421040C9421040C942104AA
:100240000C9421040C947A1B0C94BA1B0C94EB1B99
:100250000C9421040C9421040C94A2190C942104F4
:100260000C9421040C9421040C9421040C9421047A
:100270000C9421040C9446070C9421040C94210442
:100280000C9421040C9421040C9421040C9421045A
:100290000C9421040C9421040C9421040C9421044A
:1002A000770872086E0869086E0864085D085808C7
:1002B0000D084B080D0834086F0E690E8C0E760E73
:1002C000970E650E350E2F0E5B0EF20DF20DF20D30
:1002D000F20DF20DF20DF20DF20DF20DF20DF20D26
:1002E000F20DF20DF20DF20DF20DF20DF20DF20D16
:1002F000F20DF20DF20DF20D230E230E230E230E3E
:10030000230E230E230E230E0A0E580FAD0F920F4D
:100310009B0F380F6F0F5D0F800F460F320F1E0FB0
:10032000160FF40E9E0D9E0D9E0D9E0D9E0D9E0DA4
:100330009E0D9E0D9E0D9E0D9E0D9E0D9E0D9E0D65
:100340009E0D9E0D9E0D9E0D9E0DE40EE40EE40E80
:10035000E40EE40EE40EE40EE40EC00FF10E0D0AFE
:100360000A4D6F64696679207468652064617465FC
:1003700020616E642074696D652E0D0A55736520C9
:100380003C5461623E202B202D206B6579732074D4
:100390006F20656469742C203C456E7465723E2044
:1003A000746F20636F6E6669726D2E0D0A0A0020ED
:1003B0002F2074696D65203D2000206461746520E4
:1003C0003D203230000D0A494F533A205A38302030
:1003D000636C6F636B207370656564207365742054
:1003E000746F202573204D487A0D0A000D0A494F7D
:1003F000533A204C6F6164696E6720626F6F74209E
:1004000070726F6772616D20282573292E2E2E0061
:100410000D0A494F533A2043502F4D204175746FB8
:100420006578656320697320257300494F533A202E
:1004300043757272656E7420000D0A002020202022
:10044000202020202020202020202020200D000DF2
:10045000202D3E000D0A20507265737320435220F8
:10046000746F206163636570742C2045534320745E
:100470006F2065786974206F7220616E79206F74C7
:10048000686572206B657920746F206368616E67A0
:10049000650D0A0020204F6B0D0A000D0A456E7491
:1004A000657220796F75722063686F696365203E9D
:1004B0000020393A20456469742052544320646115
:1004C0007465202B2074696D65000D0A000D0A20EB
:1004D000373A20546F67676C652043502F4D204199
:1004E00075746F6578656320282D3E202573290D6E
:1004F0000A20383A204368616E676520000D0A20A3
:10050000353A2069486578204C6F616465720D0A40
:1005100020363A204368616E6765205A3830206380
:100520006C6F636B20737065656420282D3E2025F9
:1005300073204D487A290020313A204175746F624A
:100540006F6F740D0A20323A2042617369630D0A9D
:1005500020333A20466F7274680D0A20343A204CDA
:100560006F6164204F532066726F6D2000290D0A61
:100570000020303A204E6F206368616E6765202846
:10058000000D0A494F533A2053656C65637420622D
:100590006F6F74206D6F6465206F72207379737450
:1005A000656D20706172616D65746572733A0D0AD4
:1005B000000D0A494F533A20436865636B2053444A
:1005C00020616E642070726573732061206B6579A1
:1005D00020746F20726570656174000D0A52544377
:1005E000206D6F64756C6520776173206E6F742069
:1005F00064657465637465642E000D0A494F533A4F
:10060000204750494F207769746820504346383559
:100610003734206F72204D435032333031372069E8
:100620007320656E61626C6564000D0A50726573BB
:1006300073203C4573633E20746F20656E74657251
:1006400020494F532073657474696E677320646921
:10065000616C6F67756520000D0A5A38302D4D4268
:1006600043332E20494F53202841546D6567613430
:1006700038303929202D2072656C656173652053EF
:100680003430343237004469736B20536574200072
:1006900020554E444F4E450D0A000D0A0A5465720E
:1006A0006D696E616C203C425245414B3E2073693E
:1006B000676E616C2064657465637465642E070DF4
:1006C0000A436F6E6669726D2028592920746F2065
:1006D0007265626F6F7420746865207379737465D6
:1006E0006D20000D0A507265737320616E79206B66
:1006F000657920746F20726573657420616E642063
:10070000726573746172740D0A0D0A000D0A0A5441
:100710006865206E65772073657474696E677320F1
:1007200077696C6C2062652061637469766520610D
:100730006674657220612072657365742E000D0AFF
:100740000A546F20726573657420616C6C20737439
:1007500061727475702073657474696E6773207448
:100760006F2074686569722064656661756C747366
:100770002073656C6563742025750D0A0A000D0AE7
:100780000A53656C65637420257520736574732046
:1007900074686520426175647261746520746F20AD
:1007A0003A202575000D0A0A4D6F64696679207438
:1007B0006865204261756472617465206F6620749B
:1007C0006865207465726D696E616C20706F7274FB
:1007D0002E0D0A0D0A0A53656C6563742030207370
:1007E0006574732074686520426175647261746514
:1007F00020746F203A203131353230302028646542
:100800006661756C7429000011241FBECFEFCDBF47
:10081000DFE3DEBF18E2A0E0B8E2E1E8F8E402C0FE
:1008200005900D92A832B107D9F721E3A8E2B8E20A
:1008300001C01D92A53BB207E1F70E94290D0C945F
:10084000B2220C9400018F9386E100000197F1F72A
:100850008F910895A298A398AA98AB980895A29A08
:10086000F2DF1DD00895A39AEEDFA298ECDFA398E3
:10087000EADFA29AE8DF13D00895082EA29AE3DFF8
:10088000802D0DD0882311F002D0F8CF0895A39ABF
:10089000A29AD9DFA398D7DFA298D5DF089508944C
:1008A000881F01C0880F59F0A39A18F40000A2987D
:1008B00002C0A29A00C0C7DFA398C5DFF3CFA39AF6
:1008C000A298C1DFA398B39BFECF8827B29981E09D
:1008D000BADF99270895882701C081E071E0A39AC3
:1008E000A298B1DFA398AFDFB39BFECF8894B299F3
:1008F0000894771FA0F7A39A813011F0A29801C045
:10090000A29AA1DFA398B39BFECF9DDF872F9927E3
:1009100008950C946A1A0F931F93CF93DF93C0919D
:100920002828D0912928CE3F2FEFD20711F408C0F4
:10093000EC0180E00E945E1BCE0101972196C1F779
:100940008FEF0E945E1B8F71853059F011E08B9AFA
:100950008FEF0E945E1B812FDF91CF911F910F912E
:100960000895C8E8D3E104EF11E006C0209771F3C1
:10097000C8010197F1F721978FEF0E945E1B8F3F0F
:10098000A9F711E0CD2B19F310E0E1CFFF920F93FF
:100990001F93CF93DF93C82FD42F152F062FF72E39
:1009A00080912A28811133C08091C0088260809391
:1009B000C008C7FD31C08B9A8FEF0E945E1B8B98D9
:1009C0008FEF0E945E1B8C2F0E945E1B8F2D0E945A
:1009D0005E1B802F0E945E1B812F0E945E1B8D2F4D
:1009E0000E945E1BC03421F1C83401F181E00E94F5
:1009F0005E1BCAE08FEF0E945E1B87FF02C0C150E2
:100A0000C9F7DF91CF911F910F91FF90089581E376
:100A10008093C008C7FFCFCF40E050E0BA0187E71E
:100A20000E94C604823068F7CF77C5CF87E8DFCF52
:100A300085E9DDCFAF92BF92CF92DF92EF92FF9226
:100A40000F931F93CF93DF9300D000D0CDB7DEB7C5
:100A500080912A28882311F0939B5BC01AE08FEFC6
:100A60000E945E1B1150D9F740E050E0BA0180E4CB
:100A70000E94C6048130B9F011E0F12CF0922A28CE
:100A80008B9A8FEF0E945E1B812F2496CDBFDEBF15
:100A9000DF91CF911F910F91FF90EF90DF90CF905A
:100AA000BF90AF9008954AEA51E060E070E088E4BA
:100AB0000E94C604813081F140E050E0BA0189EE25
:100AC0000E94C604823008F471C0FF24F39421E42C
:100AD000E22E00E117E294EFC92EDD24D39406C084
:100AE000C6010197F1F70150110931F240E050E0E1
:100AF000BA018E2D0E94C6048111F2CF40E052E06F
:100B000060E070E080E50E94C604182F8111B4CF28
:100B1000B5CF0E948B04A2CFCE0101966C017E015D
:100B200095E0E90EF11C86018FEF0E945E1BF80133
:100B300081938F01EE15FF05B9F78B81813009F0A4
:100B40009BCF8C818A3A09F097CF00E117E264EFDE
:100B5000A62EBB24B39407C0C5010197F1F701503D
:100B6000110909F489CF40E050E060E070E489EEBB
:100B70000E94C6048111F0CF40E050E0BA018AE73C
:100B80000E94C604811178CF8FEF0E945E1BF60190
:100B900081936F01EE16FF06B9F78981182F107443
:100BA00086FF09C010E05CE0F52E68CF32E0F32E3E
:100BB00049EEE42E8ECF84E0F82E60CFAF92BF9244
:100BC000CF92DF92EF92FF920F931F93CF93DF9319
:100BD0007C01690180912A2883FD07C089E0440FC8
:100BE000551F661F771F8A95D1F781E50E94C604BD
:100BF00081110CC0C0E4DCE902C0219739F08FEF0D
:100C00000E945E1B8F3FC9F38E3F89F0C1E08B9A33
:100C10008FEF0E945E1B8C2FDF91CF911F910F9160
:100C2000FF90EF90DF90CF90BF90AF90089582E05B
:100C300092E05C01A01AB10AAC18BD08C114D1043D
:100C400031F0E6018FEF0E945E1B2197D9F7E11486
:100C5000F10489F0E7018FEF0E945E1B8993015038
:100C60001109C9F78FEF0E945E1B81E0A81AB10835
:100C7000C9F7C0E0CCCF8FEF0E945E1B0150110975
:100C800089F38FEF0E945E1B01501109A1F7EACF93
:100C90000F931F93CF93DF93009721F1EA012097E1
:100CA000D9F02091282830912928232BA9F08C01F4
:100CB00002C0232B89F0F80181918F010E945E1BF5
:100CC0002091282830912928215031092093282863
:100CD00030932928219769F780E0DF91CF911F9108
:100CE0000F910895411551056105710559F08091E5
:100CF0002A2883FF0DC088E50E94C604882381F05E
:100D000081E0EBCFDF91CF911F910F910C948B0479
:100D100089E0440F551F661F771F8A95D1F7EBCFE7
:100D20008FEF0E945E1B8EEF0E945E1B80E092E0C0
:100D30008093282890932928CFCFA5E4B4E020E120
:100D40002C930000E6E4F4E0208331E03093A60425
:100D500041E24DB94FEF4CB92C93000020832C9306
:100D6000000020832C93000020832C93000020831C
:100D70008DB92C93000020832C93000020832C93AA
:100D8000000020839DB92C93000020832C93000049
:100D900020831CB83093A5040895CF93DF93A5E476
:100DA000B4E090E19C930000E6E4F4E0908346EA2E
:100DB00054E021E0EA01288336E33DB93FEF3CB936
:100DC0009C93000090839C93000090831CB89C939C
:100DD000000090839C93000090838DB93CB99C9354
:100DE000000090839C93000090831CB865EA74E037
:100DF000EB0128839C93000090839C9300009083D8
:100E00009C93000090839C9300009083EA012883C8
:100E100083E28DB93CB99C93000090839C930000C1
:100E200090831CB89C93000090839C930000908357
:100E30009C9300009083FB012083DF91CF91089564
:100E400081EB95E09F938F930E94CA1F0F900F90A4
:100E50000E94001C8823E1F30C94111CCF93DF93B4
:100E6000D82FCDEC8C9FC12D1124C695C695C69563
:100E70008C2F80630E943C1C8D2F9AE0C99F8019A3
:100E800011248063DF91CF910C943C1C1F920F9230
:100E90000FB60F9211248F93EF93FF93EFE3F1E3DB
:100EA00080818F5F80838FE787BBFF91EF918F9168
:100EB0000F900FBE0F901F9018951F920F920FB6B4
:100EC0000F9211248F9382E0809343018F910F90B2
:100ED0000FBE0F901F90189580ED0E942F04811176
:100EE00055C00E944F0481ED0E94330480913F3130
:100EF000809340310E946D04982F92959F708F705F
:100F00002AE0929F800D1124809342310E946D044B
:100F1000982F92959F708F702AE0929F800D1124D8
:100F2000809343310E946D04982F92959F708F702B
:100F30002AE0929F800D1124809344310E946D0419
:100F4000809345310E946D04982F92959F708F7009
:100F50002AE0929F800D1124809346310E946D04F7
:100F6000982F92959F708F702AE0929F800D112488
:100F7000809347310E946B04982F92959F708F70D9
:100F80002AE0929F800D1124809348310C944704ED
:100F9000CF93DF93D82FC62F80ED0E942F048111AD
:100FA00006C08D2F0E944F048C2F0E944F04DF91AA
:100FB000CF910C944704CF9380ED0E942F04882397
:100FC00031F0C9E10E9447048C2FCF91089581E14F
:100FD0000E944F0481ED0E9433040E946B04C82FCD
:100FE0000E9447048C2FCF910895CF92DF92EF9209
:100FF000FF920F931F93CF93DF9380910028CC240F
:10100000C394C0E0D0E0082E000C990B2FEAE22E2A
:1010100023E0F22E0AEB13E018C08AE30E943C1C86
:1010200080910028082E000C990BC817D90719F4D5
:101030008DE60E94B51C8CE0C81611F18091002845
:10104000082E000C990B2196C394DC2EC817D907E3
:1010500009F454C08D2D90E08C309105F0F6FC0120
:10106000E05BFE4F0C94781F809142310E942E0766
:1010700080910028082E000C990BC817D907C1F2DF
:101080008DE0DF91CF911F910F91FF90EF90DF9056
:10109000CF900C943C1C809143310E942E0780918C
:1010A0000028082E000C990BC817D90761F6C0CF8D
:1010B000809144310E942E07F2CFFF92EF920E945E
:1010C000CA1F0F900F90EBCF809146310E942E07E0
:1010D000E6CF809147310E942E07E1CF8DE20E943A
:1010E0003C1C9ECF809148310E942E07D8CF1F9381
:1010F0000F930E94CA1F0F900F90D1CF81E30E94DF
:10110000B51C8DE60E943C1C84E30E94B51C8DE654
:101110000E943C1C9FCF0F931F93CF93DF9380E4DB
:10112000809300288EE593E09F938F930E94CA1FBF
:101130000F900F90DDECC1E090913F3180914031F4
:10114000981751F00E946C070E94F50790913F316B
:10115000809140319813F6CF0E94001C882361F3E0
:101160000E94111C8B3299F18D3261F0893009F4A3
:101170006AC08D3009F78BE4DF91CF911F910F91F9
:101180000C94B51C8091002887FD79C08595082EA8
:10119000000C990BFC01EE0FFF1FEE0FFF1FE80F75
:1011A000F91FEA51FA47A081B1818C919281981779
:1011B00018F681508C938D9F912D112496959695BC
:1011C0009695682F26E0929F600D112433C02091E0
:1011D0000028822F27FD55C08595082E000C990BFD
:1011E000BC01660F771F660F771FFB01E80FF91F21
:1011F000EA51FA47A081B1813C91032F10E02450BD
:10120000223060F1438150E0041715070CF094CFB1
:101210003F5F3C933D9F212D1124269526952695D1
:1012200046E0249F300D1124860F971FFC01EA51E0
:10123000FA47632F84810E94C80780913F318F5FF6
:1012400080933F3179CF809100288B301CF0C09380
:101250000028F3CF8E5F80930028EFCFE0914731D5
:1012600020914831237029F4E23019F44DE150E027
:10127000CBCFF0E0E752FA47408150E0C5CF8F5F17
:1012800085CF81E0820FA8CF2F923F924F925F923D
:101290006F927F928F929F92AF92BF92CF92DF9286
:1012A000EF92FF920F931F93CF93DF9380E791E329
:1012B0000E94461321E8A22E25E0B22E3DE6432EE1
:1012C00035E0532E47E3C42E45E0D42E5DEFE52EE6
:1012D00054E0F52E0DEC14E06AEC662E64E0762EF8
:1012E00071EB272E74E0372EEBE98E2EE4E09E2E74
:1012F000BF92AF920E94CA1F0F900F9080913C3115
:10130000853008F493C0DF92CF920E94CA1F80916B
:101310009C310E94EB0C0F900F908091A13188239B
:1013200009F46AC088E695E89F938F93FF92EF9245
:101330000E94CA1F0F900F900F900F908091A331C1
:10134000882309F456C08DE695E89F938F931F93E9
:101350000F930E94CA1F80919C310E94EB0C7F92D8
:101360006F920E94CA1F0F900F900F900F900F90D6
:101370000F9080919F3181114FC09F928F920E9458
:10138000CA1F0F900F90809148019091490190FFE2
:1013900027C0079A0E94001C811127C0C0E28091DB
:1013A0000228C81780F3809101288C1760F30798F2
:1013B0008C2F0E943C1C84E994E09F938F930E94A1
:1013C000CA1F0F900F90C73309F447C0C0F0C8334D
:1013D00009F47FC0C93309F04BC00E948B0888CF45
:1013E00007980E94001C8823C9F20E94111CC82F74
:1013F000D6CF81E795E8A9CF8BE695E895CFC633A0
:10140000B9F56091A13181E068276093A1318DE049
:1014100090E00E94241B6CCF3F922F920E94CA1F23
:1014200089E3809301280F900F90A7CF80E38093EA
:10143000022881E795E09F938F930E94CA1F8091B5
:101440003C318F5C0E943C1C5F924F920E94CA1FED
:101450000F900F900F900F9056CF6091A33181E0C5
:1014600068276093A3318CE090E00E94241B40CF5A
:10147000C63308F03DCF6FEC6C0F60933C316530A4
:1014800008F06CC08AE090E00E94241B80913C31FF
:10149000833009F06CC08BE294E09F938F930E949D
:1014A000CA1F0F900F9080919C31DF91CF911F91B7
:1014B0000F91FF90EF90DF90CF90BF90AF909F90F3
:1014C0008F907F906F905F904F903F902F900C94F3
:1014D000EB0C84E594E09F938F930E94CA1F809148
:1014E0009C310F900F9095E0E92EF12C0FE414E061
:1014F000CCE3D4E005C08B3109F44CC080913B3182
:1015000090E00196B7010E94421F80933B311F93E8
:101510000F930E94CA1F80913B310E94EB0CDF9316
:10152000CF930E94CA1F0E94111C0F900F900F9022
:101530000F908D3001F789E394E09F938F930E9481
:10154000CA1F60913B3160939C318EE090E00E9415
:10155000241B0F900F908CED80933C318AE090E03B
:101560000E94201B80933C31833009F494CFDF919B
:10157000CF911F910F91FF90EF90DF90CF90BF9090
:10158000AF909F908F907F906F905F904F903F9023
:101590002F90089589E394E09F938F930E94CA1F30
:1015A0000F900F908AEED8CF0F931F93CF93DF93B6
:1015B000C82F8CE090E00E94201B823008F4E9C024
:1015C00060E08CE090E00E94241B1092A3318DE635
:1015D00095E89F938F9380E194E09F938F930E946F
:1015E000CA1F8DE090E00E94201B0F900F900F907B
:1015F0000F90882351F091E09093A131823028F030
:1016000061E08DE090E00E94241B8EE090E00E945B
:10161000201B853008F048C180939C318AE090E01F
:101620000E94201B80933C31179B03C0853008F437
:101630008AC00E94440980913C31813009F489C0FC
:10164000813008F451C1823009F490C0843009F02F
:1016500033C180E19DEF80933D3190933E3180E234
:101660008093460486E090E120E1909345040000D9
:10167000909346048150C1F780E280934504209303
:101680004504000020934604209345040000209365
:10169000460480913D3190913E31009709F0F0C0B1
:1016A0000E949D0680913C31843008F47CC0C0913A
:1016B0000986D0910A860091078610910886F80164
:1016C00081918F010E94CD062197C9F78BE380930A
:1016D0004431809343318093423180E280934604C9
:1016E00086E090E120E19093450400009093460449
:1016F0008150C1F780E280934504209345040000A7
:1017000020934604209345040000209346048093D0
:10171000010A8091A1318823B1F183E08093000A0E
:101720008BE695E89F938F9385EC93E09F938F933F
:101730000E94CA1F0F900F900F900F90DF91CF91D2
:101740001F910F910895CB3109F473CF813009F0C7
:1017500077CF8093A43181E895E880936C319093A2
:101760006D3110923D3110923E3179CF8DE895E880
:1017700080936C3190936D3180E091E080933D31A6
:1017800090933E316CCF81E08093000A88E695E823
:10179000C9CF982F91709093A331882309F4E4C0A6
:1017A00081E795E816CF80E791E30E944613809386
:1017B0009E318823A9F080E791E30E94461380932D
:1017C0009E31882369F00E94200780E791E30E9400
:1017D000461380939E318111F6CF02C00E942007EC
:1017E00080916C3190916D310E94681480939E318C
:1017F0008111F4CF80916D318F9380916C318F93F3
:101800008CEE93E09F938F930E94CA1F0F900F90CE
:101810000F900F9060EA71E38BE491E30E94D20C89
:1018200080939E3110923B319091A0319923A1F089
:10183000E0E0F0E0E55BFE4C80810E94CD06E091A7
:101840003B31EF5FE0933B318091A031E81788F3A3
:10185000803289F080919E31882309F437CF0E942D
:10186000200760E070E0CB010E94381880919E3123
:101870008111D0CF2BCF80919E31882359F2EFCFA9
:1018800080E090E00E949D0683EC0E94CD0680914E
:101890003D310E94CD0680913E310E94CD0680915F
:1018A0003D3190913E31FCCE10929C3160E08EE053
:1018B00090E00E94241BB2CE80919C31823079F15D
:1018C000F0F4882309F443C0813009F0C8CE83EADC
:1018D00095E880936C3190936D3180E890E080932F
:1018E0003D3190933E31BBCE84E795E880936C31D7
:1018F00090936D3110923D3110923E31B0CE8330D5
:10190000D9F0843009F0ABCE85EC95E880936C314A
:1019100090936D3110923D3110923E31A0CE8EEAFF
:1019200095E880936C3190936D3180E091E08093E5
:101930003D3190933E3193CE89EB95E880936C31A5
:1019400090936D3110923D3110923E3188CE89E9ED
:1019500095E880936C3190936D3180EE91ED80939A
:101960003D3190933E317BCE8DE695E832CE0E949C
:101970002A0480ED0E942F04811110C08EE00E9485
:101980004F0480E00E944F040E9447048091B104FC
:10199000887F83608093B10480E008950E944704AB
:1019A00081E008950F931F93CF93DF9300D0CDB7BD
:1019B000DEB78B01AE014F5F5F4F60E270E00E94C7
:1019C0000C169981F80190830F900F90DF91CF91C1
:1019D0001F910F9108951F93CF93DF9300D0CDB740
:1019E000DEB7182F86E896E09F938F930E94CA1F58
:1019F0001063812F0E943C1C1093062884E098E21B
:101A00000E946814AE014F5F5F4F60E270E08BE4AC
:101A100091E30E940C1689818093A0310F900F9062
:101A2000882389F080E20E943C1C8BE491E39F9321
:101A30008F9384E096E89F938F930E94B41F0F903A
:101A40000F900F900F900F900F90DF91CF911F91FB
:101A50000895CF93DF9300D0CDB7DEB78AED91E143
:101A60000E949D190E94890481E0809380010E9458
:101A7000581B0E942A0480E40E942F0491E08111E7
:101A800090E090939D310E9447040E94B70C8823F8
:101A900009F4E1C3179B0E94C11C88E596E09F935F
:101AA0008F930E94CA1F8AE296E09F938F930E94B1
:101AB000CA1F6DE971E180E10E945E110F900F90E5
:101AC0000F900F9004C00E946711882399F00E9424
:101AD000001C8823C1F30E94111C8B31A1F7809355
:101AE0006E3160E070E080E00E945E110E9467113C
:101AF0008111EDCF81E30E94B51C8BE40E943C1C58
:101B00008DE00E943C1C80919D3181119BC380918E
:101B10009F31882309F48DC380916E310E94D40ACD
:101B20005AEAF52E11E00FEF63E1B62E72E0D72EE0
:101B3000E0E1EE2EFDECCF2EA4E89A2E169912C00D
:101B4000119942C08AB1282F287083FF28C18EB115
:101B500080936E31109380011092A7311092A831BA
:101B6000169BEECF0E9467118091413181111FC0F9
:101B70008091403190913F318917C9F08F5F8093F8
:101B80004031809142318B3308F4FDC110924231D3
:101B9000809143318B3308F404C280914431873102
:101BA00008F063C28F5F809344311092433180917B
:101BB000A431882319F20E94001C882309F4BECFA7
:101BC000519BBCCF4998BACF13990DC05399DFC12F
:101BD00020916E31822F90E0FC01E058F109E9324A
:101BE000F105A0F0FDB88091A131882309F1F894A6
:101BF0009FEFA0E8B1E0BC939CB90000000000009A
:101C00000000000000001CB8789498CFE45AFE4F02
:101C10000C94781F8091A6318F5F0E942F04811150
:101C2000E2CF0E946B048DB98091A1318111DFCF89
:101C3000F8949FEFA0E8B1E0BC939CB900000000CD
:101C40001CB878947BCF80919D31882309F4CBCF49
:101C5000822F8770880F80648093A631DDCF80E764
:101C600091E30E9446138DB9BECF2091A7313091E8
:101C7000A8312115310509F404C28091032881118E
:101C80000DC02F7109F443C2E22FF0E0E55BFE4C7A
:101C900080818DB92091A7313091A8312F3F91E0FB
:101CA000390710F000936E312F5F3F4F2093A7311B
:101CB0003093A83198CF8091AC318111DCC1109361
:101CC000AC318091AE318DB98ECF809103288DB922
:101CD0008ACF80919D31811153C01DB884CF8CB3C0
:101CE0008095881F8827881F8DB97DCFA0909F3150
:101CF000AA0C8091A331A82A0E94001CF4E08F9FB7
:101D0000C00111248A2990914A31992309F438C2DB
:101D100098E0892B8DB967CF80919D318823E9F2B6
:101D200080E40E942F0481115ECF83E12FC0809157
:101D30009F31882309F457CF8091A7319091A83122
:101D40009C012F5F3F4F2093A7313093A831823001
:101D5000910509F429C208F41FC28430910509F4E1
:101D600031C208F42BC2059709F030C28091483186
:101D70008DB9109241310E94DB078093493133CFF6
:101D800080E40E942F0481112ECF82E10E944F0433
:101D900081E40E9433040E946B048DB945CF8EB15B
:101DA0008093A23190916E319D3009F403C110935C
:101DB0008001492F50E04A32510508F0BFCEFA01A8
:101DC000EB57FE4F0C94781F892F880F8093A63114
:101DD0000E942F048091A2310E944F040E94470468
:101DE000ADCE8093A631AACE2091A7313091A831F3
:101DF0002115310509F03CC160919A3170919B31F8
:101E0000611582E0780708F033C18091A531909187
:101E10000328803208F0FAC0992309F4D9C0C90117
:101E200001968093A7319093A83188CE8093A531F5
:101E3000803208F022E12093032880CE4091A73120
:101E40005091A8314115510509F049C190E08093A6
:101E50009A3190939B31CA0102968093A731909357
:101E6000A8316CCE843608F46EC1E092032866CEA9
:101E700080919D31882309F461CE80E40E942F0473
:101E8000882309F4B0C10E94470458CE80919D3147
:101E9000882309F453CE80E40E942F048111F3CFEC
:101EA0008DE00E944F048091A2310E944F04EBCF3D
:101EB00080FDE09A80FFE09841CE80919D3188239B
:101EC00009F43CCE80E40E942F048111DCCF81E034
:101ED0000E944F048091A2310E944F04D4CF809180
:101EE0009D31882309F42ACE80E40E942F048111B9
:101EF000CACF0E944F048091A2310E944F04C3CFE9
:101F000080919D31882309F419CE80E40E942F042A
:101F10008111B9CF8CE00E944F048091A2310E94C0
:101F20004F04B1CF8F7180688EBB6DEA71E181E0A3
:101F30000E945E1103CE80919D31882309F4FECD6D
:101F400080E40E942F0481119ECF82E10E944F0401
:101F50008091A2310E944F0496CF0E943C1C809138
:101F6000A231833008F4E8C0873009F0E7CDF69954
:101F7000E5CD9EBA6DEA71E181E00E945E11DECD91
:101F80008091A63125CF8F5F8093423110CE0E9481
:101F9000001C812780934A31882339F00DB9499A72
:101FA00022CE8F5F8093433102CE0E94111C8DB9E7
:101FB000499A19CE813009F4EAC008F4E3C08230AE
:101FC00021F48093A9011092AB0110938001B6CD4A
:101FD000660F771F62957295707F7627607F7627F0
:101FE000682BCB01A0E0B0E0BC01CD0149E0660F59
:101FF000771F881F991F4A95D1F70E943818809340
:1020000003282091A7313091A831982F911107CF43
:10201000822F8F71E82F082E000CFF0BE55BFE4C22
:102020009091A23190838F3109F0F9CEAE014F5FCC
:102030005F4F60E270E08BE491E30E941417998196
:1020400090936B3180930328903208F0D4C0B09203
:1020500003282091A7313091A8312F3F91E0390713
:1020600008F4DDCE00936E31DACE0E946C079FCD6E
:1020700090910328CBCF8091AD318DB91092AC31C6
:10208000B2CD60919A3170919B31611582E07807F1
:10209000D0F58091A5318032B0F59091032891114F
:1020A00003CE660F771F62957295707F7627607FEB
:1020B0007627682BCB01A0E0B0E0BC01CD0129E080
:1020C000660F771F881F991F2A95D1F70E9438182D
:1020D000809303282091A7313091A831D0CD609111
:1020E0009A3170919B31FB01F82BCF01E0939A312B
:1020F000F0939B318115924008F021E12093032851
:1021000000936E31A8CE809103288111CDCDAE0110
:102110004F5F5F4F60E270E08BE491E30E940C162A
:1021200099819093A03180930328903208F454C091
:102130008111B0CD20E0A8CDF69A66EB71E180E385
:102140000E945E11FBCC90919C319063909311287A
:102150008C9D912D1124969596959695292F206307
:10216000209313282AE0929F801911248063809382
:1021700014288FE098E20E94681480930328DECC34
:1021800090E0C7CDD092A901D092AB011ECF1092A2
:10219000A901D092AB0119CF009751F00197B1F48A
:1021A000809143318DB91FCD809144318DB91BCDC4
:1021B00010934131809142318DB915CD80914631D6
:1021C0008DB911CD809147318DB90DCD80914931B7
:1021D0008DB900936E3107CDB09203282091A731BD
:1021E0003091A8315BCD83E10E944F048091A231F0
:1021F0000E944F0448CE2091A7313091A8312F3F43
:10220000E1E03E0708F40BCE81112CCFAE014F5F09
:102210005F4F60E070E080E090E00E9414179981C9
:1022200090936B31809303282091A7313091A8318E
:1022300019CF8BED95E09F938F930E94CA1F0F904B
:102240000F906ACC8AEF95E09F938F930E94CA1FEC
:102250000F900F905CCC81E080939F311ECCE69B69
:102260000CC0E6988AE996E09F938F930E94CA1F5C
:10227000AC980F900F9088E00895AC9A02C00E942D
:10228000111C0E94001C8111FACF0E94111C90E0C9
:102290000E94AC1F8935910551F080E996E09F932B
:1022A0008F930E94CA1F0F900F9080E0089543E023
:1022B00068ED80E091E00E94401BFFCFE9EAF1E386
:1022C0006183728390912C28890F80830895E69B07
:1022D0000AC08FE291E18093AA319093AB31809153
:1022E0002C288093A9318091AA319091AB31892B10
:1022F00011F12091A93180912C28082E000C990B06
:10230000821B910927FD939597FD13C0E091AA3197
:10231000F091AB310995882339F090912C28890FE1
:102320008093A93181E008951092AA311092AB31C7
:10233000089581E0089580E008958EE20E943C1C9B
:1023400080912B2884302CF48F5F80932B2880E1A0
:10235000089510922B2880E00895F79903C0AC9A55
:1023600080E00895F798AC988EB308951EBA80E087
:1023700008951F920F920FB60F9211248F939F937F
:1023800082B1082E000C990B892F881F8827881F7F
:1023900080FDE79A80FFE79810920A0A80E1809317
:1023A0000B0AE099079A9F918F910F900FBE0F90A3
:1023B0001F9018958091AC31811108C08091100652
:1023C000909111068093AD319093AE31E09915C094
:1023D000079913C082B1082E000C990B892F881F12
:1023E0008827881F80FDE79A80FFE79807988091EB
:1023F0002C288F5F80932C2808958091200A809349
:10240000280A80E180930B0A80930A0A079880913A
:102410002C288F5F80932C280895CF92DF92EF9223
:10242000FF92CF93DF93FC01C0912D28D0912E28ED
:102430001082118284819581A681B78181309105B6
:10244000A105B10529F1CE80DF80E884F9848C15DF
:102450009D05AE05BF05E0F40097A105B10501F5A6
:102460008881833009F443C0108611861286138652
:102470008E859F85A889B98984879587A687B78720
:1024800080E0DF91CF91FF90EF90DF90CF900895A3
:1024900081E0DF91CF91FF90EF90DF90CF90089592
:1024A00080879187A287B3879C01AD0122503109B3
:1024B0004109510982E0C81AD108E108F1082C1538
:1024C0003D054E055F0520F080E090E0DC01D4CFB3
:1024D000AA81B0E00E947E1FCA88DB88EC88FD8854
:1024E000DC01CB018C0D9D1DAE1DBF1DC5CF8E85A2
:1024F0009F85A889B98980879187A287B38700972C
:10250000A105B10509F3D0CFCF92DF92EF92FF92F0
:102510000F931F93CF93DF9300D000D0CDB7DEB7DA
:102520006230710581059105E0F1E0912D28F0916F
:102530002E28068117812085318560177107820753
:10254000930778F5DC01CB0120812230D1F12330D3
:1025500041F59C012F773327220F331F220F331FA2
:1025600057E0B695A795979587955A95D1F7C28468
:10257000D384E484F584AC01BD014C0D5D1D6E1D5A
:102580007F1D04E010E0CE0101960E94DE0581115E
:1025900008C089819A81AB81BC81BC01CD019F704B
:1025A00004C061E070E080E090E02496CDBFDEBF23
:1025B000DF91CF911F910F91FF90EF90DF90CF901F
:1025C00008959C013327220F331F892F9A2FAB2F99
:1025D000BB27C284D384E484F584AC01BD014C0DD7
:1025E0005D1D6E1D7F1D02E010E0CE0101960E9470
:1025F000DE058111D6CF69817A8180E090E0D5CF68
:10260000CF92DF92EF92FF920F931F93CF93DF93BE
:10261000EC016A017B0102E010E02EEF31E00E9444
:10262000DE05882351F083E0DF91CF911F910F9158
:10263000FF90EF90DF90CF90089588819981853544
:102640009A4A11F082E0F0CF26E330E0B701A6010C
:10265000CE010E94DE05811105C0888199818634F2
:10266000914491F002E010E022E530E0B701A601CC
:10267000CE010E94DE05811105C0888199818634D2
:10268000914411F081E0D0CF80E0CECF4F925F92A5
:102690006F927F928F929F92AF92BF92EF92FF9232
:1026A0000F931F93CF93DF93CDB7DEB7A897CDBF1E
:1026B000DEBF7C0110922D2810922E280E941A0550
:1026C00080FF13C082E0A896CDBFDEBFDF91CF911F
:1026D0001F910F91FF90EF90BF90AF909F908F90C0
:1026E0007F906F905F904F90089540E050E0BA0166
:1026F000CE0101960E940013813009F4B4C0812CF0
:10270000912C5401833009F4ACC0882311F086E089
:10271000DACF04E210E02DE030E0B501A401CE01F3
:1027200001960E94DE0581119CC02A853B8540E010
:1027300050E0211531054105510521F4288D398DD1
:102740004A8D5B8DAC81B0E00E947E1F6DA37EA39D
:102750008FA398A74A815B8160E070E0840E951E8C
:10276000A61EB71ED7011A968D929D92AD92BC926D
:102770001D97298112962C9312974D805E80149696
:102780004D925C9215978F819885A0E0B0E00097FC
:10279000A105B10521F48C899D89AE89BF89529428
:1027A00042943FE04322452453224524612C712C5E
:1027B000841B950BA60BB70B4DA15EA16FA178A54D
:1027C000841B950BA60BB70BBC01CD0164197509D1
:1027D0008609970930E040E050E00E94561FDA0178
:1027E000C9010296A11DB11DF70186839783A087B9
:1027F000B187BA01A901465F5F40610971094F3F86
:102800005F4E6105710508F04AC0873F9F4FA105E3
:10281000B10508F44CC083E0F701808388A199A139
:10282000AAA1BBA186879787A08BB18B840C951C2E
:10283000A61CB71C4DA15EA16FA178A5840E951EA4
:10284000A61EB71ED70152968D929D92AD92BC9254
:10285000559711961C92E0922D28F0922E2880E038
:1028600032CF81E030CF00E110E02EEB31E040E0EC
:1028700050E0BA01CE0101960E94DE058111F1CF30
:102880008D81882309F443CF89849A84AB84BC84E6
:10289000B501A401CE0101960E94001333CF873FFA
:1028A0009F4FA105B10508F0B6CF86E00CCF82E0BE
:1028B000D7018C938DA19EA1AFA1B8A5880D991DBC
:1028C000AA1DBB1DF70186879787A08BB18BAECF62
:1028D0004F925F926F927F928F929F92BF92CF9210
:1028E000DF92EF92FF920F931F93CF93DF93CDB7B9
:1028F000DEB7EC97CDBFDEBF7C01C0902D28D09015
:102900002E28C114D10409F449C1F6011182AE0187
:102910004F5C5F4F4BA35CA3FC018081803229F4A4
:1029200031967F0181918032E1F38F3209F43AC10F
:102930001DA21EA21FA218A6F7018081803220F1DD
:10294000DA0110E2B12EFD01CD010B96B1928E1786
:102950009F07E1F790E080E038E021E0280FF701E1
:10296000E80FF11D8081813208F41AC18F3231F1F4
:102970008E3209F4B0C0931708F5FD01E90FF11D7F
:1029800080839F5F822FE9CFCE0181960E940D1236
:10299000811101C083E0EC96CDBFDEBFDF91CF9106
:1029A0001F910F91FF90EF90DF90CF90BF909F907D
:1029B0008F907F906F905F904F90089580E0E20E2F
:1029C000F11C1B968C93CE0181960E940D128111F1
:1029D000E2CF29A13AA14DA55EA56FA578A92F70D8
:1029E0003327220F331F22953295307F3227207FE5
:1029F000322700E210E0CE0101960E94DE0581112F
:102A0000CBC08981882331F26C8563FD2FC04BA137
:102A10005CA1FA01DE0112969A01255F3F4F01C0C9
:102A20008D919191981322C02E173F07C9F7FA0193
:102A300083858111BBC064FFADCFE0912D28F0915B
:102A40002E288081833009F44DC000E010E0980109
:102A50008B8D9C8DA0E0B0E0802B912BA22BB32B13
:102A60008DA39EA3AFA3B8A7DA016DCF09A11AA1C8
:102A70000F5F1F4F09F48ECF4DA55EA56FA578A9F6
:102A8000411551056105710509F484CFC8018F70A6
:102A90009927892BE1F480902D2890902E284F5F64
:102AA0005F4F6F4F7F4F4DA75EA76FA778AB49A4CD
:102AB0005AA46BA47CA4F401411451046104710470
:102AC000C9F4848195810817190708F063CF09A319
:102AD0001AA3980184CF383009F070CF98E03BE01A
:102AE000822F3BCF8D899E89A0E0B0E09C01112709
:102AF0000027AECF828190E09C0121503109C801AE
:102B0000929582958F7089279F70892782239323BE
:102B1000892BE9F6C301B2010E948412623071056B
:102B200081059105C8F1F401468057806084718465
:102B3000641575058605970508F02CCF69A77AA757
:102B40008BA79CA7E0912D28F0912E289B01AC012A
:102B5000225031094109510986819781A085B185AB
:102B60000297A109B109281739074A075B0708F03E
:102B700047C0A281B0E00E947E1F428853886488CB
:102B80007588AB01BC01440D551D661D771D4DA711
:102B90005EA76FA778AB9BCF81E0FDCE85E0FBCE33
:102BA00081E00DCFFFEFEF1AFF0AC2CE8C8584FDC6
:102BB000F1CEE0912D28F0912E288081833021F1F3
:102BC00080E090E0DC014B8D5C8D60E070E0842B58
:102BD000952BA62BB72BF601868F978FA0A3B1A3B9
:102BE0008D8D9E8DAF8DB8A1828F938FA48FB58F61
:102BF000168A178A108E118E81E0818380E0CBCEF9
:102C000040E050E0BA01C3CF8D899E89A0E0B0E0DA
:102C1000DC0199278827D7CF4F925F926F927F92DE
:102C20008F929F92AF92BF92CF92DF92EF92FF92DC
:102C30000F931F93CF93DF932C016B013A01E09028
:102C40002D28F0902E28FA0110821182E114F1044F
:102C500009F4DDC0F701818180FD12C084E0DF91BD
:102C6000CF911F910F91FF90EF90DF90CF90BF9089
:102C7000AF909F908F907F906F905F904F9008954E
:102C800006891789208D318D828D938DA48DB58D08
:102C9000801B910BA20BB30BAB0160E070E08417BB
:102CA0009507A607B70708F4B4C0C114D10409F406
:102CB000B5C05201812C52E0952E35C046A157A1D6
:102CC00060A571A598013170E401C21BD30BCC162D
:102CD000DD0608F4E6014114510409F48EC0C50173
:102CE0008E010E94DE05F701811195C086899789C2
:102CF000A08DB18D8C019D010C0F1D1F211D311D5B
:102D0000068B178B208F318FAC0EBD1ECC1ADD0ABF
:102D1000F30180819181C80FD91FC083D183C11471
:102D2000D10409F47BC0D901C8019170AA27BB273F
:102D3000F701892B8A2B8B2B09F0C0CFC281C150A0
:102D4000D901C80149E0B695A795979587954A9509
:102D5000D1F7C823E1F182A193A1A4A1B5A1E0918B
:102D60002D28F0912E289C01AD01225031094109F6
:102D7000510986819781A085B1850297A109B10982
:102D8000281739074A075B0708F04AC0A281B0E05C
:102D90000E947E1F0289138924893589AB01BC01F9
:102DA000400F511F621F731F4115510561057105C9
:102DB000B9F14C0F511D611D711DF70146A357A3B9
:102DC00060A771A706891789208D318D7BCFF70108
:102DD000012B022B032BA1F4668D778D80A191A18D
:102DE000F7016230710581059105A8F062A373A314
:102DF00084A395A3DC01CB01B2CF80E090E070CF3B
:102E000062A173A184A195A10E948412E9CF85E0FB
:102E100026CF6C014ACF118281E021CF80E01FCF05
:102E2000F701118281E01BCF4F925F926F927F92E8
:102E30008F929F92AF92BF92CF92DF92EF92FF92CA
:102E40000F931F93CF93DF936C017B015A01C091C5
:102E50002D28D0912E28FA0110821182209709F492
:102E6000D4C0898180FD12C084E0DF91CF911F9191
:102E70000F91FF90EF90DF90CF90BF90AF909F9019
:102E80008F907F906F905F904F900895672B09F41B
:102E9000BEC04E895F89688D798D86FD06C0442746
:102EA0005E7F4E8B5F8B688F798F8A8D9B8DAC8D0B
:102EB000BD8D841B950BA60BB70B870120E030E07E
:102EC00080179107A207B30720F47C01892B09F42E
:102ED000CDC0812C32E0932E08C0E114F10409F436
:102EE000C5C04E895F89688D798DCA019170009740
:102EF00009F051C01A811150DB01CA0129E0B695D1
:102F0000A795979587952A95D1F7182309F485C039
:102F10008AA19BA1ACA1BDA1E0912D28F0912E2802
:102F20009C01AD01225031094109510986819781E7
:102F3000A085B1850297A109B109281739074A0769
:102F40005B0708F085C0A281B0E00E947E1F428826
:102F5000538864887588AB01BC01440D551D661DFE
:102F6000771D411551056105710509F471C0410FC7
:102F7000511D611D711D4EA35FA368A779A780E055
:102F800090E00E944806811163C089818064898332
:102F90008E899F8991708401081B190BE016F10638
:102FA00008F487012801612C712CB301A201C6012C
:102FB0000E94480681114CC08E899F89A88DB98DC9
:102FC000480E591E6A1E7B1E4E8A5F8A688E798E55
:102FD000C00ED11EE01AF10AF50180819181080F1F
:102FE000191F00831183F1E05F22452809F075CF96
:102FF00040E050E0BA0180E090E00E944806811174
:1030000027C089818F7B898368CF85E02ECF86FD9D
:1030100022C08F7B898380E028CF452B462B472B0E
:1030200081F46E8D7F8D88A199A162307105810533
:10303000910570F06AA37BA38CA39DA3DC01CB0157
:103040006BCF6AA17BA18CA19DA10E948412EDCFC0
:10305000198281E00ACF40E050E0BA0180E090E0C0
:103060000E9448068111F4CF8981D3CF80E0FDCE44
:103070004F925F926F927F928F929F92AF92BF9288
:10308000CF92DF92EF92FF92CF93DF93CDB7DEB76F
:103090002697CDBFDEBF20912D2830912E282D837D
:1030A0003E832115310509F4B1C0D90111962C9147
:1030B000119720FD13C084E02696CDBFDEBFDF91BF
:1030C000CF91FF90EF90DF90CF90BF90AF909F9007
:1030D0008F907F906F905F904F9008955A96CD900B
:1030E000DD90ED90FC905D976C157D058E059F053C
:1030F00008F48EC0ED81FE8146885788608C718C03
:10310000168A178A108E118EC114D104E104F104BD
:1031100009F481C08280912CA12CB12C39E0880C5B
:10312000991CAA1CBB1C3A95D1F7411451046104A7
:10313000710419F1B1E04B1A510861087108C70117
:10314000B6016150710981099109A50194010E949C
:10315000561F29833A834B835C83C301B201A501C7
:1031600094010E94561F89819A81AB81BC8182178C
:103170009307A407B50708F050C0ED81FE81668D66
:10318000778D80A191A162A373A384A395A38C14CE
:103190009D04AE04BF0470F1B8C0AD81BE81169627
:1031A0004D905D906D907C9019976415750586051E
:1031B000970538F5AD81BE8192966D937D938D9381
:1031C0009C93959756964D905D906D907C905997F5
:1031D000480C591C6A1C7B1CFD01468A578A608E6C
:1031E000718EC818D908EA08FB088C149D04AE0437
:1031F000BF0488F50E948412623071058105910533
:1032000060F6ED81FE81118281E056CF85E054CFDA
:103210006B017C016FCF80E04FCF88279927DC01BD
:1032200088199909AA09BB09482259226A227B22D6
:10323000AD81BE8156964D925D926D927C9259976A
:10324000C418D508E608F70892966D917D918D9186
:103250009C9195979CCFE0912D28F0912E28C40C3D
:10326000D51CE61CF71CAD81BE815696CD92DD9231
:10327000ED92FC9259979B01AC0122503109410912
:10328000510986819781A085B1850297A109B1096D
:10329000281739074A075B0708F0B3CFA281B0E0CF
:1032A0000E947E1F82889388A488B588DC01CB01A8
:1032B000880D991DAA1DBB1D0097A105B10509F434
:1032C000A0CFED81FE814280512CF1E04F1A5108D0
:1032D000052C000C6608770829E0F694E794D7944B
:1032E000C7942A95D1F7C420D520E620F720C80E30
:1032F000D91EEA1EFB1EAD81BE819696CD92DD924F
:10330000ED92FC92999780E0D7CEED81FE814688C0
:103310005788608C718CA3CFE0E0F6E081E0868B6B
:1033200094E0918395E5928391E2938381878287EC
:103330009FE09683808380E0089580932F28909368
:10334000302808951F920F920FB60F9211242F93D9
:103350003F934F935F936F937F938F939F93AF931D
:10336000BF93EF93FF9380910B06816080930B06D0
:10337000E0912F28F0913028309709F00995FF91BE
:10338000EF91BF91AF919F918F917F916F915F91DD
:103390004F913F912F910F900FBE0F901F90189556
:1033A00080E00895E0ECF1E084E081838AEA83879D
:1033B00083E0818781E4808785E5878785E085874D
:1033C00081E8848781E08083158280E0089540E170
:1033D00068ED81E690E00E94401B80E008957894BB
:1033E00080E00895E0E1F4E0808188608193E83135
:1033F00084E0F807C9F7E0E3F4E080818860819316
:10340000E83384E0F807C9F7E0E5F4E080818860FC
:103410008193E83584E0F807C9F7E0E7F4E08081BC
:1034200088608193E83784E0F807C9F7E0E9F4E0C1
:10343000808188608193E83984E0F807C9F7E0EB80
:10344000F4E0808188608193E83B84E0F807C9F765
:1034500008950598E5E1F4E08081877F8083E0EEC0
:10346000F5E08281816082830C9A049A8281816076
:1034700082830C945F1C4C98449AE0EEF5E08481C2
:10348000826084830C946C1B0E9A069AE0EEF5E041
:103490008181816081834098E0E5F4E08081877FCD
:1034A00080830C94D2198198E1E9F4E08081877FD0
:1034B0008083E0EEF5E08381826083838898809A40
:1034C0008381826083838A98829A838182608383E6
:1034D0000C94581B0E94F2190098E0E1F4E08081FE
:1034E000877F80830198E1E1F4E08081877F80839A
:1034F0000A9A029A0398E3E1F4E08081877F80834F
:103500000798E7E1F4E08081886080832098E0E319
:10351000F4E08081886080832198E1E3F4E0808199
:10352000886080832298E2E3F4E080818860808371
:103530002398E3E3F4E08081886080832498E4E3C7
:10354000F4E08081886080832598E5E3F4E0808161
:1035500088608083499A419A4A9A429A4398E3E55F
:10356000F4E08081877F80834D98459A4E98469AF3
:103570004F98479A6898609A6998619A6A98629A8F
:103580006B98639A6C98649A6D98659A6E98669A2F
:103590006F98679A8B9A839AA898A09AA198E1EB62
:1035A000F4E0808188608083A298E2EBF4E080817F
:1035B00088608083A398E3EBF4E080818860808357
:1035C000AC9AA49AA698E6EBF4E08081877F80838A
:1035D0000E94E7190E94441BE5EBF4E08081887F9C
:1035E000846080838081877F80830E948C190E9401
:1035F000291A0E94781B0E943B1A0E940B1B0E94F2
:10360000441A0E941E1B0E94531A0E94EF190E9426
:10361000561B0C94D019E0E8F1E080E4818B8BE438
:10362000848B8BE0878B81E080A385E082A388E098
:1036300080A782E081A783A780E0089580E00895B5
:103640009C5EFC01808108951F93CF93DF93EC0172
:10365000162F8091021081FDFCCF44E06DE980E0DF
:1036600090E10E94401BDC5E188343E06DE980E03E
:1036700090E10E94401B80E0DF91CF911F9108955F
:10368000FC0164BF40830895809141018111FCCF0A
:1036900081E0809340018093470180915101811125
:1036A000FCCF81E08093500180E0089580E0089590
:1036B00083E38093C00810923128089590913128B7
:1036C000923009F4FFCF8093C4088091C30887FF2C
:1036D000FCCF8091C4080895E0E0FAE081E08383A4
:1036E00083A787A389EF86A382E0808380E0089583
:1036F00080E008951F920F920FB60F9211242F931E
:103700003F934F938F939F93EF93FF938091010883
:1037100082FD2CC0409100088091392990913A296E
:103720000196977020913729309138298217930795
:1037300089F08093392990933A29FC01E55CF64D94
:1037400040838091352990913629019680933529BF
:1037500090933629FF91EF919F918F914F913F91D7
:103760002F910F900FBE0F901F901895E69A8091A1
:103770000008F0CF1F920F920FB60F9211248F9373
:10378000EF93FF93809132288823C1F0E091332892
:10379000EF5FE0933328F0E0EB5CF74D808180939E
:1037A000020880913228815080933228FF91EF9156
:1037B0008F910F900FBE0F901F9018958091050864
:1037C0008F7D80930508FF91EF918F910F900FBE31
:1037D0000F901F9018951F920F920FB60F92112401
:1037E0008F93EF93FF93E0E0F8E08481806484831B
:1037F000FF91EF918F910F900FBE0F901F90189532
:10380000209135293091362980913529909136299A
:1038100028173907A9F781E0232B09F0089580E0E4
:10382000089580913529909136292091352930913C
:10383000362982179307A9F7892B99F380913729A5
:1038400090913829019697700FB6F8940F922091B5
:10385000352930913629215031092093352930936B
:10386000362980933729909338290F900FBEFC0199
:10387000E55CF64D80810895209134282F5F90916A
:1038800032289F3FE1F3E22FF0E0EB5CF74D8083BD
:103890000FB6F8940F9220933428809132288F5FCE
:1038A000809332280F900FBE80910508806280932C
:1038B000050808950E943C1C80E090E008958BE08C
:1038C00090E00E94201B853048F186EB92E08093C7
:1038D00008089093090880E88093050880EC80939D
:1038E000060881E080930B0810923729109238293E
:1038F0001092392910923A291092352910923629BE
:103900001092332810923428109232288AE198E2DB
:103910008093B1319093B23180E00895E82FF0E0C8
:10392000EE0FFF1FE958F7476081718180E090E05A
:103930000E94471E20E030E040E851E40E94D51E7E
:103940009B01AC0160E876E988E99EE40E94A61D2F
:1039500020E030E040E05FE30E943A1D0E94181E24
:103960006093080870930908B6CFCF93C82F8BE1F6
:103970000E943C1C8BE50E943C1C8C2FCF910C9428
:103980003C1C85EA97E09F938F930E94CA1F09E72A
:1039900018E80F900F90C1E0D0E090E086E92EE7A4
:1039A000E22E27E0F22E8F939F93DF93CF93FF9227
:1039B000EF920E94CA1F0F900F900F900F900F90E0
:1039C0000F90C530D10539F0F801908181810E5FEB
:1039D0001F4F2196E8CF1F9286E08F938EE397E0EA
:1039E0009F938F930E94CA1F0F900F900F900F907C
:1039F0000E94111C90ED980F9730D0F79630F9F097
:103A00006FEC680F8BE090E00E94241B8CE097E045
:103A10009F938F930E94CA1F83EE96E09F938F938C
:103A20000E94CA1F0E94111C43E068ED80E091E0F3
:103A30000E94401B0F900F900F900F90FFCF6FEFE1
:103A40008AE090E00E94241B6FEF8BE090E00E94E0
:103A5000241B6FEF8CE090E00E94241B6FEF8DE041
:103A600090E00E94241B6FEF8EE090E00E94241BE8
:103A7000CDCF5058BB27AA270E94511D0C949B1EE6
:103A80000E948D1E38F00E94941E20F039F49F3F52
:103A900019F426F40C948A1E0EF4E095E7FB0C94BE
:103AA000841EE92F0E94AC1E58F3BA1762077307F1
:103AB0008407950720F079F4A6F50C94CE1E0EF439
:103AC000E0950B2EBA2FA02D0B01B90190010C012E
:103AD000CA01A0011124FF27591B99F0593F50F446
:103AE000503E68F11A16F040A22F232F342F44279E
:103AF000585FF3CF469537952795A795F040539596
:103B0000C9F77EF41F16BA0B620B730B840BBAF065
:103B10009150A1F0FF0FBB1F661F771F881FC2F7D0
:103B20000EC0BA0F621F731F841F48F487957795E4
:103B30006795B795F7959E3F08F0B0CF9395880F9E
:103B400008F09927EE0F9795879508950E94BA1D62
:103B50000C949B1E0E94941E58F00E948D1E40F0F3
:103B600029F45F3F29F00C94841E51110C94CF1E50
:103B70000C948A1E0E94AC1E68F39923B1F355235E
:103B800091F3951B550BBB27AA2762177307840770
:103B900038F09F5F5F4F220F331F441FAA1FA9F306
:103BA00035D00E2E3AF0E0E832D091505040E695F4
:103BB000001CCAF72BD0FE2F29D0660F771F881F55
:103BC000BB1F261737074807AB07B0E809F0BB0B48
:103BD000802DBF01FF2793585F4F3AF09E3F51055C
:103BE00078F00C94841E0C94CF1E5F3FE4F3983E53
:103BF000D4F3869577956795B795F7959F5FC9F745
:103C0000880F911D9695879597F90895E1E0660FC5
:103C1000771F881FBB1F621773078407BA0720F03E
:103C2000621B730B840BBA0BEE1F88F7E0950895A7
:103C30000E94B41E88F09F5798F0B92F9927B7516A
:103C4000B0F0E1F0660F771F881F991F1AF0BA9540
:103C5000C9F714C0B13091F00E94CE1EB1E00895B2
:103C60000C94CE1E672F782F8827B85F39F0B93FA4
:103C7000CCF3869577956795B395D9F73EF49095F3
:103C80008095709561957F4F8F4F9F4F0895E89471
:103C900009C097FB3EF490958095709561957F4F94
:103CA0008F4F9F4F9923A9F0F92F96E9BB27939542
:103CB000F695879577956795B795F111F8CFFAF452
:103CC000BB0F11F460FF1BC06F5F7F4F8F4F9F4F83
:103CD00016C0882311F096E911C0772321F09EE8E1
:103CE000872F762F05C0662371F096E8862F70E047
:103CF00060E02AF09A95660F771F881FDAF7880F21
:103D00009695879597F9089597F99F6780E870E0F1
:103D100060E008959FEF80EC089500240A94161641
:103D2000170618060906089500240A9412161306A9
:103D3000140605060895092E0394000C11F4882337
:103D400052F0BB0F40F4BF2B11F460FF04C06F5F53
:103D50007F4F8F4F9F4F089557FD9058440F551F29
:103D600059F05F3F71F04795880F97FB991F61F0FD
:103D70009F3F79F087950895121613061406551F74
:103D8000F2CF4695F1DF08C0161617061806991FE0
:103D9000F1CF86957105610508940895E894BB27D5
:103DA00066277727CB0197F908950E94E81E0C94A7
:103DB0009B1E0E948D1E38F00E94941E20F09523B9
:103DC00011F00C94841E0C948A1E11240C94CF1EA6
:103DD0000E94AC1E70F3959FC1F3950F50E0551FE4
:103DE000629FF001729FBB27F00DB11D639FAA2750
:103DF000F00DB11DAA1F649F6627B00DA11D661F9F
:103E0000829F2227B00DA11D621F739FB00DA11DBF
:103E1000621F839FA00D611D221F749F3327A00D79
:103E2000611D231F849F600D211D822F762F6A2F15
:103E300011249F5750409AF0F1F088234AF0EE0F7A
:103E4000FF1FBB1F661F771F881F91505040A9F7A7
:103E50009E3F510580F00C94841E0C94CF1E5F3F52
:103E6000E4F3983ED4F3869577956795B795F795E3
:103E7000E7959F5FC1F7FE2B880F911D969587955B
:103E800097F9089597FB072E16F4009407D077FD55
:103E900009D00E94891F07FC05D03EF490958195BA
:103EA0009F4F0895709561957F4F0895A1E21A2E56
:103EB000AA1BBB1BFD010DC0AA1FBB1FEE1FFF1FCE
:103EC000A217B307E407F50720F0A21BB30BE40B1E
:103ED000F50B661F771F881F991F1A9469F7609565
:103EE0007095809590959B01AC01BD01CF0108951F
:103EF000EE0FFF1F0590F491E02D09940E949D1F85
:103F0000A59F900DB49F900DA49F800D911D11242D
:103F10000895AA1BBB1B51E107C0AA1FBB1FA61710
:103F2000B70710F0A61BB70B881F991F5A95A9F762
:103F300080959095BC01CD010895A29FB001B39FDB
:103F4000C001A39F700D811D1124911DB29F700DA2
:103F5000811D1124911D08959111089581568A5152
:103F600008F4805285580895A0E0B0E0EAEBFFE144
:103F70000C949122AE014B5F5F4FFA0161917191F8
:103F8000AF018091B1319091B2310E94F01FE2E017
:103F90000C94AA22A0E0B0E0E0EDFFE10C948F22A7
:103FA000AE01495F5F4FDA016D917D91AD010FEA7E
:103FB00011E3F80182819381DC0113962C91139710
:103FC000286013962C930E94F01FD8011296ED9151
:103FD000FC9113972381277F2383E4E00C94A8228C
:103FE000ABE0B0E0E6EFFFE10C9481226C017B01D5
:103FF0008A01FC0116821782838181FFCCC1CE0128
:1040000001963C01F6019381F70193FD859193FFA1
:1040100081917F01882309F4BAC1853239F493FD77
:10402000859193FF81917F01853229F4B60190E05B
:104030000E94E721E7CF912C212C312CFFE1F315D1
:10404000D8F08B3279F038F4803279F08332A1F4F1
:10405000232D20611DC08D3261F0803369F4232D42
:10406000216016C0832D8260382EE32DE4603E2E41
:104070002AC0F32DF8601DC037FC2DC020ED280F9D
:104080002A3040F08E32B9F436FC81C1232D2064F1
:10409000322E19C036FE06C08AE0989E200D1124EB
:1040A000922E11C0EAE02E9E200D1124222EF32D17
:1040B000F0623F2E08C08C3621F4832D8068382EA4
:1040C00002C0883641F4F70193FD859193FF8191F9
:1040D0007F018111B3CF982F9F7D9554933028F4A1
:1040E0000C5F1F4F9FE399830DC0833631F08337F8
:1040F00071F0833509F059C021C0F80180818983AE
:104100000E5F1F4F88248394912C530113C0280104
:10411000F2E04F0E511CF801A080B18036FE03C0C2
:10412000692D70E002C06FEF7FEFC5010E94DC21B6
:104130004C018201F32DFF773F2E16C0280122E0AB
:10414000420E511CF801A080B18036FE03C0692DDB
:1041500070E002C06FEF7FEFC5010E94D1214C01DA
:10416000F32DF0683F2E820133FC1BC0822D90E0BE
:1041700088169906B0F4B60180E290E00E94E7212B
:104180002A94F4CFF50137FC859137FE81915F01C8
:10419000B60190E00E94E72121102A9421E0821AC2
:1041A00091088114910471F7E8C0843611F08936C2
:1041B00041F5F80137FE07C06081718182819381EA
:1041C0000C5F1F4F08C060817181072E000C880BA7
:1041D000990B0E5F1F4FF32DFF763F2E97FF09C0FF
:1041E00090958095709561957F4F8F4F9F4FF068A8
:1041F0003F2E2AE030E0A3010E942322882E861859
:1042000045C0853731F4232D2F7EB22E2AE030E0D1
:1042100025C0932D997FB92E8F36C1F018F48835BB
:1042200079F0B5C0803719F0883721F0B0C0E92F98
:10423000E061BE2EB4FE0DC0FB2DF460BF2E09C0A0
:1042400034FE0AC0292F2660B22E06C028E030E0D6
:1042500005C020E130E002C020E132E0F801B7FE05
:1042600007C060817181828193810C5F1F4F06C0FE
:104270006081718180E090E00E5F1F4FA3010E947A
:104280002322882E8618FB2DFF773F2E36FE0DC089
:10429000232D2E7FA22E891458F434FE0BC032FC3D
:1042A00009C0832D8E7EA82E05C0B82CA32C03C078
:1042B000B82C01C0B92CA4FE0FC0FE01E80DF11D01
:1042C0008081803321F49A2D997EA92E09C0A2FE07
:1042D00006C0B394B39404C08A2D867809F0B394D1
:1042E000A3FC11C0A0FE06C0B21488F4280C922CC6
:1042F0009B180EC0B21460F4B60180E290E00E94F8
:10430000E721B394F7CFB21418F42B1802C0982CFD
:10431000212CA4FE10C0B60180E390E00E94E721AA
:10432000A2FE17C0A1FC03C088E790E002C088E5A8
:1043300090E0B6010CC08A2D867859F0A1FE02C02B
:104340008BE201C080E2A7FC8DE2B60190E00E9402
:10435000E721891438F4B60180E390E00E94E72158
:104360009A94F7CF8A94F301E80DF11D8081B6018C
:1043700090E00E94E7218110F5CF222009F442CE7F
:10438000B60180E290E00E94E7212A94F6CFF60180
:104390008681978102C08FEF9FEF2B96E2E10C940C
:1043A0009A22FC010590615070400110D8F7809569
:1043B00090958E0F9F1F0895FC01615070400190F1
:1043C0000110D8F7809590958E0F9F1F08950F9339
:1043D0001F93CF93DF93FB01238121FD03C08FEF58
:1043E0009FEF2CC022FF16C0468157812481358162
:1043F0004217530744F4A081B1819D012F5F3F4FC5
:10440000208331838C93268137812F5F3F4F268312
:10441000378314C08B01EC01FB010084F185E02D92
:104420000995892BE1F6D80116968D919C911797E5
:10443000019616968D939C931797CE01DF91CF919D
:104440001F910F910895FA01AA27283051F12031C8
:1044500081F1E8946F936E7F6E5F7F4F8F4F9F4F18
:10446000AF4FB1E03ED0B4E03CD0670F781F891F5A
:104470009A1FA11D680F791F8A1F911DA11D6A0F28
:10448000711D811D911DA11D20D009F468943F91DB
:104490002AE0269F11243019305D3193DEF6CF01DA
:1044A0000895462F4770405D4193B3E00FD0C9F7A0
:1044B000F6CF462F4F70405D4A3318F0495D31FD0D
:1044C0004052419302D0A9F7EACFB4E0A695979560
:1044D000879577956795BA95C9F700976105710536
:1044E00008959B01AC010A2E069457954795379580
:1044F0002795BA95C9F7620F731F841F951FA01DDA
:1045000008952F923F924F925F926F927F928F9277
:104510009F92AF92BF92CF92DF92EF92FF920F9352
:104520001F93CF93DF93CDB7DEB7CA1BDB0BCDBF95
:10453000DEBF09942A88398848885F846E847D8428
:104540008C849B84AA84B984C884DF80EE80FD803B
:104550000C811B81AA81B981CE0FD11DCDBFDEBFD9
:08456000ED010895F894FFCF6E
:1045680031300035004F4646004F4E004155544FFC
:10457800424F4F542E42494E00424153494334372B
:104588002E42494E00464F52544831332E42494E2E
:104598000043504D32322E42494E0051504D4C444A
:1045A800522E42494E0043504D4C44522E434F4DDB
:1045B80000554353444C44522E42494E00434F53F6
:1045C8002E42494E003E3E694C6F6164203D3D3DA0
:1045D80000001F1C1F1E1F1E1F1F1E1F1E1F4831ED
:1045E8000063064731010C054631011F04443100C0
:1045F80017024331003B014231003B002573000D97
:10460800866A0210FD3110FD2152FDCDC6FECD3E59
:10461800FFCDF4FD3EFFBC2010BD200D21D9FDCDFE
:10462800C6FE2188FDCDC6FE76E521D9FDCDC6FEA4
:104638002175FDCDC6FEE1CD4BFFCD3EFFCD3EFF42
:10464800DB01FEFF20FAE9694C6F6164202D2049E7
:104658006E74656C2D486578204C6F6164657220B6
:104668002D205332303037313800537461727469F9
:104678006E6720416464726573733A20004C6F6101
:1046880064206572726F72202D2053797374656D82
:104698002068616C7465640057616974696E67208D
:1046A800696E7075742073747265616D2E2E2E009C
:1046B80053796E746178206572726F722100436855
:1046C80065636B73756D206572726F722100694C3A
:1046D8006F61643A2000416464726573732076697F
:1046E8006F6C6174696F6E2100F5D5C501FFFF21FC
:1046F800A3FDCDC6FECD3EFFCD72FFFE0D28F9FE0F
:104708000A28F5FE2028F1CD1AFFCD69FFFE3AC22E
:10471800A3FECDE1FE571E00CDBEFECDD6FE3EFF68
:10472800B82005B92002444D7CCDBEFE7DCDBEFE2D
:10473800CDE1FECDBEFEFE01201ECDE1FECDBEFECA
:104748007BA72866CD3EFF21D9FDCDC6FE21C9FD38
:10475800CDC6FE01FFFF18527AA7282CCDE1FECD69
:10476800BEFEE5C5A701F0FCED42C1E1DA8EFECD43
:104778003EFF21D9FDCDC6FE21E1FDCDC6FE01FFDC
:10478800FF182777231518D0CDE1FECDBEFE7BA7F5
:1047980020B2CD3EFFC303FECD3EFF21D9FDCDC6DD
:1047A800FE21BBFDCDC6FE01FFFFCD3EFF6069C106
:1047B800D1F1C9C54F7B915F79C1C9F5E57EFE008E
:1047C8002806CD69FF2318F5E1F1C9F5CDE1FE67AB
:1047D800CDE1FE6FF1C9C5CDF4FECB07CB07CB0702
:1047E800CB0747CDF4FEB0C1C9CD72FFCD1AFFCDBE
:1047F80006FF30F5CD23FFCD2EFFC9FE47D0FE3092
:1048080030023FC9FE3AD8FE4130023FC937C9FEDF
:1048180061D8FE7BD0E65FC9FE3A3802D607D630AB
:10482800E60FC9F5E60FC630FE3A3802C607CD696D
:10483800FFF1C9F53E0DCD69FF3E0ACD69FFF1C90B
:10484800E5F57CCD58FF7DCD58FFF1E1C9F5C547A9
:104858000F0F0F0FCD2EFF78CD2EFFC1F1C9F53EFA
:1048680001D301F1D300C9DB01FEFFCA72FFC90001
:0948780096004B8025C012600976
:10488100403831134453784E414D2E444154004435
:1048910053784E79792E44534B00000000020000FA
:0848A10000005A1C0000000099
:0400000300000200F7
:00000001FF
